:020000040000fa
:080000000002040000000000f2
:020000040000fa
:040008008407000069
:020000040000fa
:04000c008407000065
:020000040000fa
:040010008407000061
:020000040000fa
:04001400840700005d
:020000040000fa
:040018008407000059
:020000040000fa
:04001c008407000055
:020000040000fa
:040020008407000051
:020000040000fa
:04002400840700004d
:020000040000fa
:040028008407000049
:020000040000fa
:04002c008407000045
:020000040000fa
:040030008407000041
:020000040000fa
:040034000c030000b9
:020000040000fa
:040038008407000039
:020000040000fa
:04003c008407000035
:020000040000fa
:040040008407000031
:020000040000fa
:04004400840700002d
:020000040000fa
:040048008407000029
:020000040000fa
:04004c008407000025
:020000040000fa
:040050008407000021
:020000040000fa
:04005400840700001d
:020000040000fa
:040058008407000019
:020000040000fa
:04005c008407000015
:020000040000fa
:040060008407000011
:020000040000fa
:04006400840700000d
:020000040000fa
:040068008407000009
:020000040000fa
:04006c008407000005
:020000040000fa
:040070008407000001
:020000040000fa
:0400740084070000fd
:020000040000fa
:0400780084070000f9
:020000040000fa
:04007c0084070000f5
:020000040000fa
:0400800084070000f1
:020000040000fa
:0400840084070000ed
:020000040000fa
:0400880084070000e9
:020000040000fa
:04008c0084070000e5
:020000040000fa
:0400900084070000e1
:020000040000fa
:0400940084070000dd
:020000040000fa
:0400980084070000d9
:020000040000fa
:04009c0084070000d5
:020000040000fa
:0400a000a8020000b2
:020000040000fa
:0400a40084070000cd
:020000040000fa
:0400a80084070000c9
:020000040000fa
:0400ac0084070000c5
:020000040000fa
:0400b00084070000c1
:020000040000fa
:0400b40084070000bd
:020000040000fa
:0400b80084070000b9
:020000040000fa
:0400bc0084070000b5
:020000040000fa
:0400c00084070000b1
:020000040000fa
:0400c40084070000ad
:020000040000fa
:0400c80084070000a9
:020000040000fa
:0400cc0084070000a5
:020000040000fa
:0400d00084070000a1
:020000040000fa
:0400d400840700009d
:020000040000fa
:0400d8008407000099
:020000040000fa
:0400dc008407000095
:020000040000fa
:0400e0008407000091
:020000040000fa
:0400e400840700008d
:020000040000fa
:0400e8008407000089
:020000040000fa
:0400ec008407000085
:020000040000fa
:0400f0008407000081
:020000040000fa
:0400f400840700007d
:020000040000fa
:0400f8008407000079
:020000040000fa
:0400fc008407000075
:020000040000fa
:040100008407000070
:020000040000fa
:04010400840700006c
:020000040000fa
:040108008407000068
:020000040000fa
:04010c008407000064
:020000040000fa
:040110008407000060
:020000040000fa
:04011400840700005c
:020000040000fa
:040118008407000058
:020000040000fa
:04011c008407000054
:020000040000fa
:040120008407000050
:020000040000fa
:04012400840700004c
:020000040000fa
:040128008407000048
:020000040000fa
:04012c008407000044
:020000040000fa
:040130008407000040
:020000040000fa
:04013400840700003c
:020000040000fa
:040138008407000038
:020000040000fa
:04013c008407000034
:020000040000fa
:040140008407000030
:020000040000fa
:04014400840700002c
:020000040000fa
:040148008407000028
:020000040000fa
:04014c008407000024
:020000040000fa
:040150008407000020
:020000040000fa
:04015400840700001c
:020000040000fa
:040158008407000018
:020000040000fa
:04015c008407000014
:020000040000fa
:040160008407000010
:020000040000fa
:04016400840700000c
:020000040000fa
:040168008407000008
:020000040000fa
:04016c008407000004
:020000040000fa
:040170008407000000
:020000040000fa
:0401740084070000fc
:020000040000fa
:0401780084070000f8
:020000040000fa
:04017c0084070000f4
:020000040000fa
:0401800084070000f0
:020000040000fa
:0401840084070000ec
:020000040000fa
:0401880084070000e8
:020000040000fa
:04018c0084070000e4
:020000040000fa
:0401900084070000e0
:020000040000fa
:0401940084070000dc
:020000040000fa
:0401980084070000d8
:020000040000fa
:04019c0084070000d4
:020000040000fa
:0401a00084070000d0
:020000040000fa
:0401a40084070000cc
:020000040000fa
:0401a80084070000c8
:020000040000fa
:0401ac0084070000c4
:020000040000fa
:040208008407000067
:020000040000fa
:04020c008407000063
:020000040000fa
:04021000840700005f
:020000040000fa
:04021400840700005b
:020000040000fa
:040218008407000057
:020000040000fa
:04021c008407000053
:020000040000fa
:04022000840700004f
:020000040000fa
:04022400840700004b
:020000040000fa
:040228008407000047
:020000040000fa
:04022c008407000043
:020000040000fa
:04023000840700003f
:020000040000fa
:04023400840700003b
:020000040000fa
:040238008407000037
:020000040000fa
:04023c008407000033
:020000040000fa
:04024000840700002f
:020000040000fa
:04024400840700002b
:020000040000fa
:040248008407000027
:020000040000fa
:04024c008407000023
:020000040000fa
:04025000840700001f
:020000040000fa
:04025400840700001b
:020000040000fa
:040258008407000017
:020000040000fa
:04025c008407000013
:020000040000fa
:04026000840700000f
:020000040000fa
:04026400840700000b
:020000040000fa
:040268008407000007
:020000040000fa
:04026c008407000003
:020000040000fa
:0402700084070000ff
:020000040000fa
:0402740084070000fb
:020000040000fa
:0402780084070000f7
:020000040000fa
:04027c0084070000f3
:020000040000fa
:0402800084070000ef
:020000040000fa
:0402840084070000eb
:020000040000fa
:0402880084070000e7
:020000040000fa
:04028c0084070000e3
:020000040000fa
:0402900084070000df
:020000040000fa
:0402940084070000db
:020000040000fa
:0402980084070000d7
:020000040000fa
:04029c0084070000d3
:020000040000fa
:0402a00084070000cf
:020000040000fa
:0402a40084070000cb
:020000040000fa
:0402a80084070000c7
:020000040000fa
:0402ac0084070000c3
:020000040000fa
:0402b00084070000bf
:020000040000fa
:0402b40084070000bb
:020000040000fa
:0402b80084070000b7
:020000040000fa
:0402bc0084070000b3
:020000040000fa
:0402c00084070000af
:020000040000fa
:0402c40084070000ab
:020000040000fa
:0402c80084070000a7
:020000040000fa
:0402cc0084070000a3
:020000040000fa
:0402d000840700009f
:020000040000fa
:0402d400840700009b
:020000040000fa
:0402d8008407000097
:020000040000fa
:0402dc008407000093
:020000040000fa
:0402e000840700008f
:020000040000fa
:0402e400840700008b
:020000040000fa
:0402e8008407000087
:020000040000fa
:0402ec008407000083
:020000040000fa
:0402f000840700007f
:020000040000fa
:0402f400840700007b
:020000040000fa
:0402f8008407000077
:020000040000fa
:0402fc008407000073
:020000040000fa
:04030000840700006e
:020000040000fa
:04030400840700006a
:020000040000fa
:040308008407000066
:020000040000fa
:04030c008407000062
:020000040000fa
:04031000840700005e
:020000040000fa
:04031400840700005a
:020000040000fa
:040318008407000056
:020000040000fa
:04031c008407000052
:020000040000fa
:04032000840700004e
:020000040000fa
:04032400840700004a
:020000040000fa
:040328008407000046
:020000040000fa
:04032c008407000042
:020000040000fa
:04033000840700003e
:020000040000fa
:04033400840700003a
:020000040000fa
:040338008407000036
:020000040000fa
:04033c008407000032
:020000040000fa
:04034000840700002e
:020000040000fa
:04034400840700002a
:020000040000fa
:040348008407000026
:020000040000fa
:04034c008407000022
:020000040000fa
:04035000840700001e
:020000040000fa
:04035400840700001a
:020000040000fa
:040358008407000016
:020000040000fa
:04035c008407000012
:020000040000fa
:04036000840700000e
:020000040000fa
:04036400840700000a
:020000040000fa
:040368008407000006
:020000040000fa
:04036c008407000002
:020000040000fa
:0403700084070000fe
:020000040000fa
:0403740084070000fa
:020000040000fa
:0403780084070000f6
:020000040000fa
:04037c0084070000f2
:020000040000fa
:0403800084070000ee
:020000040000fa
:0403840084070000ea
:020000040000fa
:0403880084070000e6
:020000040000fa
:04038c0084070000e2
:020000040000fa
:0403900084070000de
:020000040000fa
:0403940084070000da
:020000040000fa
:0403980084070000d6
:020000040000fa
:04039c0084070000d2
:020000040000fa
:0403a00084070000ce
:020000040000fa
:0403a40084070000ca
:020000040000fa
:0403a80084070000c6
:020000040000fa
:0403ac0084070000c2
:020000040000fa
:10040000cfb720000eff20000e0188000000000082
:10041000000020000000e000020032000001200087
:10042000200288000c000700c011220001002000fb
:1004300011000700000020000000e0000200320070
:10044000000002000000000036030200000000006f
:100450000040da000000fe004440a900000820002f
:100460000000e0000300320000002000a00188002e
:100470004440a80000000600910188008000780038
:100480000000eb0015003700e280400032a0b4000d
:100490009101ba00e280400032a0b4009102ba009b
:1004a000e280400032a0b4000002eb00472bde00e7
:1004b000f507b200602ce10004003a000059eb009f
:1004c0008301e900fdff3e00040037006128e100e0
:1004d000010032000082eb000b00070011c3ba00dc
:1004e0001101ba000604e00003003a000200e00037
:1004f000e5ff3a0000000600f607b200960188000a
:1005000082007800f5ff37003159ba008301e90015
:100510000c0032002159ba008301e90008003200c2
:100520000400e00003003a00e280400032a0b40082
:10053000f5ff370011d9ba008301e900faff3a004c
:100540008100e800e180400032a0b4000000060015
:10055000809fbe00821f78000200fa000000eb00be
:10056000000f780090118000620060000000e00041
:10057000010032003222a900b0118000000f780083
:100580001e007800ea0f500010003a005248800028
:100590001e00780080407800608820000000410044
:1005a00001487800504880008000e8006088200002
:1005b000008040008040eb000148780010002000df
:1005c000904888000a29ef000e003700514880004b
:1005d000d0032000808f500009003c00504880006c
:1005e0009e00780001417800618820008100400071
:1005f000824878000000e800504888000100370079
:100600000000000087c0a9000080fa004f017800b8
:100610004f00be0000400600809fbe003400f8007e
:1006200000002000a00188000000fa0000408000c7
:100630000000e8000040880001408000803e20006b
:10064000808f500004003a000028ef001040800026
:100650000000e800104088008460a9000080fa00d3
:100660003400f9004f00be00004006000800fa0008
:1006700020079800310798006000b800008fbe0086
:100680005200070079000700c6010700cc62a900ec
:100690000228ef0000000000104080000000e00091
:1006a000fdff3400f2022000c1092a00608420000e
:1006b0006c03070060842000b80007000228ef00e8
:1006c00000000000104080000000e000fdff34004a
:1006d000cc62a80001003700000000000060fe00ae
:1006e00001408000301f2000808f500002003c003d
:1006f000cda2a9000b003700cda2a80010408000b9
:10070000e10f5000070034000228ef002040800075
:100710000000e80020408800cde2a900cdc2a90079
:10072000cd82a90021408000c0032000808f5000ae
:100730001a003a000428ef009a010700d5010700cb
:10074000cf80de007e020700008fbe0062722900ab
:10075000f3c723001e00be00ba0207000001be005e
:1007600005498000b0488000c1488000a44880004e
:10077000829fbe00851f7800809fbe00841f780086
:10078000b00c2a00801f7800608420003c03070022
:10079000ee875700608420008000070090488000aa
:1007a000e10f5000ccff3a0097c0a90002042000de
:1007b00061882000608c20002a03070097c0a800f1
:1007c0001229ef00ef000700c4ff37000000fa0015
:1007d000c422ef0010022000001688001000200044
:1007e00000278800cc22ef0060002000401688001f
:1007f000e224ef0000212800200888000021ef00fb
:1008000010498000100888008460a9009460a80046
:100810002005800000c0a00000d0a00000e0a100e2
:1008200020058800900580000080a0000090a100b5
:1008300000a0a10090058800cc62a900cde2a9002b
:10084000cdc2a900cd82a900cda2a9002500070034
:100850002f0007003a00070044000700cd82a800df
:10086000cda2a8000080fa00000006000000fa00f7
:100870000028ef000228ef000428ef001029ef0005
:100880000d0037008148800060802000008040001b
:100890008040eb000148780081488000608420009f
:1008a000008040008040eb000148780080488000d4
:1008b0000000e8008048880081488000e0032000b4
:1008c000808f5000efff34000e69ef000629ef0023
:1008d0000829ef000a29ef000c29ef000080fa0038
:1008e000000006000000fa000080280000118800c7
:1008f0002222ef002422ef002622ef0090012000a8
:10090000401188002342a8000080fa000000060081
:100910000000fa0000802800801188003222ef00d9
:100920003422ef003622ef0090012000c011880031
:1009300097c0a8003342a8000080fa00000006001b
:100940000000fa000008200040108800800220000b
:10095000101088000422ef000622ef003001200072
:10096000501088000080fa00000006000000fa0025
:1009700000072000001a880000802800101a880054
:1009800040f02100201a880000002100a01a8800f1
:100990004823ef000080fa00000006000200fa0081
:1009a000000f7800040037001e0078001040780027
:1009b0001e0fe800060007001e00780010407800b7
:1009c0000004e000f8ff3a000080fa000000060092
:1009d0000200fa00004f78001e00fb002011880082
:1009e0000000000011118000001020000080600055
:1009f0000000e000fbff32000080fa00000006006b
:100a00000000fa000000000010118000610060008a
:100a10000000e000fcff3200101180006200600066
:100a20000000e000010032002222a9003011800005
:100a3000004078000080fa00000006000200fa0082
:100a4000000f7800040037001e0078001040780086
:100a50001e0fe800060007001e0078001040780016
:100a60000004e000f8ff3a000080fa0000000600f1
:100a70000200fa00004f78001e00fb00a011880061
:100a80000000000091118000001020000080600034
:100a90000000e000fbff32000080fa0000000600ca
:100aa0000000fa0090118000620060000000e00089
:100ab000010032003222a900b0118000004078000d
:100ac0000080fa00000006000200fa000040eb007f
:100ad000004f780090118000610060000000e0008d
:100ae00026003200eeff0700004f78001e00fb00da
:100af000ea0f50000d003a00514880006088200045
:100b0000008040001e487800504880008000e800c7
:100b100060882000008040008040eb0001487800a1
:100b2000180007000a29ef00140037005148800020
:100b3000d0032000808f50000d003c005048800002
:100b400061882000810040009e4878000000e80095
:100b50005048880051488000f0032000808f5000ea
:100b600005003a00070007000a29ef0003003700dc
:100b70000000000001003700000000000080fa00c3
:100b8000000006000200fa00618c2000914078000d
:100b9000014f7800608c200080ff07001e00fb00e2
:100ba00011052000810f50000700320031052000a0
:100bb000810f50000f00320091042000810f50007f
:100bc0001000320020003700b0488000c14880008b
:100bd000809fbe0060102a00801f7800608c20007b
:100be00027020700e6875700608c200093ff07006c
:100bf00015003700c8c8bf000000fb00004988008e
:100c000011003700a18c20009140780010c4b3007f
:100c100080cf500003003a000000eb00a90007005d
:100c200009003700e18c20009140780010c4b30027
:100c300080cf500003003a0020002000a1000700f0
:100c400001003700000000000080fa0000000600ec
:100c50000000fa000402a80000000000201080003c
:100c6000610060000000e000fcff3a008600a9007f
:100c70000080fa00000006000200fa00004f780031
:100c80001e00fb00001088000000000040108000e3
:100c9000610060000000e000fcff3a002b0007004c
:100ca0008600a90021108000000420000080600060
:100cb0000000e000020032001000200001003700b8
:100cc0000000eb000080fa00000006000000fa00bf
:100cd0000462a80000000000401080006100600075
:100ce0000000e000fcff32008600a90017000700aa
:100cf000001080000080fa00000006000000fa00ea
:100d000004a2a9000482a8000000000020108000b6
:100d1000700060000000e000fcff3a000080fa0074
:100d2000000006000000fa0004a2a8000482a80047
:100d30000000000020108000700060000000e00053
:100d4000fcff3a000080fa00000006000000fa00f4
:100d500000000000201080007f0060000000e00024
:100d6000fcff3a0040108000640060000000e000da
:100d7000f8ff3a000080fa00000006000000fa00c8
:100d80000442a80000000000201080006400600001
:100d90000000e000fcff3a008600a9000080fa0095
:100da000000006000000fa00a9ff070000c9b30018
:100db000b1ff07000040eb00afff0700a4ff0700f2
:100dc00010c9b300acff0700c0ff0700a0488800af
:100dd000a04880004800dd00a0488800c7ff070049
:100de000baff0700a148800000807000a04888007a
:100df000ccff0700e1ff07000149800060042000ec
:100e0000808f500018003a00a14880000010200098
:100e100000017800110009008200d800cf80de00b8
:100e2000c7000700b0488800c1488800b04880006b
:100e3000c14880006266260063fe230001010700ae
:100e4000b0488800c1488800b0488000c148800090
:100e500002002000032024005c000700b048880046
:100e6000c148880009003700a14880000010200018
:100e700000017800110009008200d800cf80de0058
:100e8000af000700b0488800c14888000080fa0021
:100e9000000006000000fa0085a0a90041e3a800b8
:100ea0004023a80000000000001a800061006000dc
:100eb0000000e000fcff3200001880000080fa0013
:100ec000000006000200fa00000f78000228ef0080
:100ed0001e0078000000e00003003200e20f500026
:100ee0000400320006003700cd82a800cde2a80041
:100ef00003003700cd82a800cdc2a800000000008a
:100f00000080fa00000006000040da000000fe0049
:100f10000a00fa00e20f500020003e00d05b800083
:100f2000e10f5000060032008023200045232000fe
:100f300023232000042320000000e00004003a00e6
:100f400080222000452220002322200004222000ad
:100f5000060028001403630003003a000608780026
:100f600000002800140a700013a8a30001003a0032
:100f700013a0a00002007800050037001388a3002a
:100f8000feff32003102fb00840a78000000e90015
:100f90000000e000f9ff3a000800370033002000ad
:100fa000b3bf9f00c0bf9f00d1bf9f00e2bf9f00a3
:100fb0006a805700510807006fb997000200780057
:100fc0000080fa000000060003f0a200889fbe0027
:100fd0008a9fbe008c1f78008200070089003300c2
:100fe0006450e1004f0032006420e1005200320002
:100ff00003826c0007003b000905d0000306d00007
:10100000820f54000c065d0002003900020032001d
:1010100089017800030678008582550004003d00b0
:101020000003fd008103fd008502ea008b8542007c
:10103000840f720002003b0060001000e080180086
:101040006011b8000005eb007a28e1000a003900c1
:1010500006007800c75ddd00f707b20087807500e5
:101060002d003700828171000a017800610560005f
:101070008180d1000080d3008502e900f9ff3b00a8
:10108000060440008784480002003b00600414000e
:10109000e0841c000988a300070032008a817100e7
:1010a00082817100610164008904d1000884d30049
:1010b0008b05e800170037000978a30013003a00f9
:1010c0000b00e000130034008b05e9000804440025
:1010d00089844c000a4474000978a3000d003a008a
:1010e0000b00e000070034008b05e9000804440011
:1010f00089844c0001003a000b0020000978a3000d
:10110000f7ff32000001eb0002003700828171001e
:101110000a0178000d0007000cf0a70001f0a00004
:10112000410037006420e10002003a00838f6c0028
:10113000410033000801be000200be003a00370043
:101140004f89de00820178007200370081002000a4
:10115000618055000b003d000b00200061fe2f0058
:101160000100e1001d003400828171006101640012
:101170008904d1000884d3000000e800faff3a0097
:101180007100200061006400030070000200600034
:101190000900320061044400e0844c000988a50085
:1011a000050032008b05e8006808e10002003a0003
:1011b0008904d1000884d300f20f20000258e10016
:1011c00005003d00c75ddd00f907b20089807500ac
:1011d00008007800000006000bf827008b0078005c
:1011e000000005000004be00890007000003be00e7
:1011f0000405be000200be0085000700844f750094
:10120000000006000200be006450e1000500360048
:101210006420e100020036000968a30001003a00e2
:101220000800be000160a0004f0678004f05be0018
:101230004f04be0000000600f0ff2f00f1ff270062
:10124000f9ff3700889fbe008a9fbe008c1f780080
:10125000e4ff0700ebff330003866c006450e100fd
:10126000240032006420e100270032006150e100d8
:10127000220032006120e100210032008b85420013
:10128000eb07b1000134b800003ab800080442008e
:1012900089844a00013ab8000030b80088804000d4
:1012a00009014a000400330000004000818048002a
:1012b000020149008b05e900c909dd0083017000c6
:1012c0000100320013002000c814de004814dd00c5
:1012d0004709de001200b200c808de000884700072
:1012e0009aff070001f0a1000cf0a70001f0a00098
:1012f000cdff37006120e100cfff32000801be00c2
:101300000200be00f7ff37006150e100fcff3a0029
:10131000c9ff3700881f7800030478000300e0004d
:1013200007003d0060001000e08018006001190017
:10133000e081190002003b0001f02d00030037009e
:101340000400070008f0a70001f0a0004f04780097
:1013500000000600889fbe008a9fbe0000827000c9
:101360000402710004827100260032000004be00f5
:101370000200be006011b8006b0920009502200039
:101380000182cf000a0039000541b1000082cf0080
:10139000070039000541b1000982cf00040039007f
:1013a0000541b1000882cf00010039000541b100bc
:1013b00005425200120032000a003b008281710097
:1013c000610164008100d1000080d3008984d300d2
:1013d0000884d3008b05e8000442e800f7ff3a00d8
:1013e000070037000804440089844c0000004800ce
:1013f000818048008b05e9000442e900f9ff3a00ca
:1014000052ff07004f05be004f04be00000006005b
:10141000c70ade00f107b200f50fb2000800320083
:10142000e1cf4200020032000170a000240005005c
:10143000810f70000100320004080500440005001f
:10144000810f700002003a00140005008502e900d7
:101450000000400081c04800fcff3b000170a0007c
:10146000240005008001780002003700b15978009f
:101470000201e9000200e000fcff3a000000060063
:101480000c00fa00889fbe0000047800f0ff2700df
:10149000d0bf9f008004eb0099bf9f0088bf9f00d2
:1014a000a8bf9f00200c2000b0bf9f00788157008c
:1014b000cfb0970070805700cf0007000fb897009b
:1014c000094878008fb89700088050004f04be008c
:1014d0000080fa00000006000800fa00889fbe00a5
:1014e0008a9fbe000084fb00d1c6b300814f50002c
:1014f000340036004b062000110009000b84d80090
:1015000081057800720040004300dd00499d200005
:10151000008044006022b8000600200007fe23007f
:101520005001be004000be00b90807000002be0026
:101530000203be0084bf9f0095bf9f00a6bf9f000f
:10154000b7bf9f00aa002000110009008a85d800bb
:1015500080057800e9854500c35ddd008b8544008a
:101560003b02be002b03be000fb897009fb8970048
:101570002fb99700bfb99700a50807000002be0069
:101580000203be0084bf9f0095bf9f00a6bf9f00bf
:10159000b7bf9f00110009000a84d8000104780039
:1015a0004344dd00888444003902be002903be00a4
:1015b0000fb897009fb897002fb99700bfb9970051
:1015c0001d003700ea4f500013003600aa0020002b
:1015d000110009000a84d800010578006904400060
:1015e0004344dd00499d2000088444006022b80087
:1015f0000600200007fe23003800be002801be00c0
:10160000830807004355dd008a8444003902be0088
:101610002903be00080037004344dd00409d200040
:10162000080440006022b8000600200007fe2300e6
:101630003800be002801be00750807004f05be0037
:101640004f04be000080fa00000006000800fa0007
:10165000889fbe008a9fbe00d1c6b3000004e00090
:1016600023003d000040ea000004fb00814f5000d1
:101670000a00340042062000110009000204d800cc
:10168000a9002000110009008900d800e9004000ed
:10169000c308dd004a9d200021003700ea4f5000ba
:1016a00010003400a2002000110009000204d8003c
:1016b00001017800690040004300dd00419d2000e9
:1016c000008040004311dd00828040003102be00f6
:1016d0002103be005001be004000be004c080700c0
:1016e000380037004344dd00409d200032003700c1
:1016f0000004fb00814f500023003400420620000c
:10170000110009000204d800a900200011000900fe
:101710008900d800e9004000c308dd004a9220009b
:10172000810045003102be002103be008b0920006c
:101730008a8545003b00be002b01be00340807002f
:101740000002be000203be0084bf9f0095bf9f0041
:10175000a6bf9f00b7bf9f00110009000904d80071
:10176000010478004344dd00080545003a02be004c
:101770002a03be000fb897009fb897002fb99700b3
:10178000bfb99700d5ff3700ea4f5000080034007a
:10179000a2002000110009000204d8000101780015
:1017a000690040004300dd0041922000c4ff370083
:1017b0004344dd0040922000080440003800be0091
:1017c0002801be004f05be004f04be000080fa0095
:1017d00000000600d0019000028151004240a900a3
:1017e0000300340010017800014978000208e80085
:1017f00001007800000006002f04b000889fbe00a2
:101800008a9fbe008c9fbe008e1f78000006780065
:10181000e19f9f0082af9f006000b8006011b80098
:1018200080a79f0091a79f00a2a79f00b3a79f003a
:101830008006eb00a3053700ef9897008100e800d1
:10184000e19f9f0051c2b300814f500003003a0056
:101850006f9997000007eb0011003700bc00900063
:101860000000fb000168a300070032000d017800b2
:10187000800078000c007800d6ff07000000e00030
:1018800005003a008f0537008c00780099050700a5
:10189000e10f40008b0532008d06e8008905370016
:1018a00002007800b2407800d3c2b30083cf50006a
:1018b0000c00320007003c00edc1510083cf500006
:1018c0000a003200ebc1410083cf50000d003a0006
:1018d0000800370003c3b30083cf500009003a006b
:1018e000060037000e30a000edff37000e00a0000c
:1018f000ebff37000e10a000e9ff37000e20a0001c
:10190000e7ff37000e18a300010032000e00a1000f
:101910000e38a300010032000e20a1000101fb00df
:101920000203b100e90f51000e003e008000780074
:101930000001eb0092b79f006a11b9003100fb0073
:101940000003b10002014000010078009101fb009a
:101950000303b100e98f5100f7ff360092b79f00f3
:101960000a0037008001eb0093b79f00a2c2b300ca
:1019700082cf500005003a000faa9700c4027800f9
:1019800084af9f0095b79f000000e800e1c2b3005c
:1019900090cf100017003a000ee0a000e4c0500005
:1019a000d0cf100003003200800078008001eb00ef
:1019b000090037008fab9700c700780087af9f0002
:1019c000d1af9f000000e800000178000d00370053
:1019d0006a1ab90084014100010078003101fb005e
:1019e0000203b100e90f5100f9ff3600d3af9f00a9
:1019f000f5ff37000ec0a0000001eb00d2af9f0042
:101a0000f1ff37008201780033407800030178004d
:101a1000c1c6b300814f50002b003200e39f9f00ee
:101a200014003c00e8c05000814f500024003200f8
:101a300009003c00ecc05000814f50002e003200e5
:101a4000ebc04000814f5000980032000004e000dd
:101a500021053200b400370061c6b300814f500049
:101a60001f003200e3c04000814f5000ae003a003a
:101a70001300370031c7b300814f500022003200fd
:101a800007003c00e4c05000814f500017003200b6
:101a90008140e800814f5000a3003a001600370053
:101aa00051c7b300814f5000a4003200e3c0400092
:101ab000814f50009c003a00a0779f001000370033
:101ac000a0779f009f003700000120000e48a30070
:101ad00001003200000028000e077000c9ff370027
:101ae000a0779f000ea0a00096003700a0779f006f
:101af0000e60a00093003700a0779f000e50a0005a
:101b00000e70a0008f003700a0779f008fa997006c
:101b10004300780083af9f00000478000000e000dd
:101b200001003a0068aa2000880078000000eb005d
:101b3000010037000000e800614178000204e00085
:101b4000fcff3a00800478005faa97000400e000e0
:101b500003003200890f5200010031008404780034
:101b60008001eb009fb29700898f52000100360080
:101b70008981520068036700d6af9f002c003a00ad
:101b800003077800110037003c0090000068a300b4
:101b9000070032000d017800010220000c007800df
:101ba0000cff07000000e00006003a0006003700c6
:101bb0008c00780000022000ce040700e10f4000f6
:101bc000010032008d06e8000e07e9000e00e0007b
:101bd000edff3a008081eb00150037003c009000db
:101be0000068a3000900320008007800b000fb0084
:101bf000000478000d0178000c007800f5fe070065
:101c00000000e00008003a000a0037008800780071
:101c10003100fb00010478008c007800b504070057
:101c2000e10f4000030032008d06e800010037009c
:101c300003077800090078008004e9000000e00054
:101c4000e6ff3a008e017800dfab97000700e00066
:101c50009c04320003077800110037003c0090001c
:101c60000068a300070032000d0178000102200087
:101c70000c007800d7fe07000000e00006003a00e4
:101c8000060037008c00780000022000990407004d
:101c9000e10f4000010032008d06e8000e07e90068
:101ca0000e00e000edff3a00860437008fa8970091
:101cb0004100780081af9f006102b900612bb9003b
:101cc00094af9f00a5af9f00b6af9f00c7af9f0026
:101cd0004822de004828dd0004027000a4779f003f
:101ce0000e48a300090032000404e000070032009f
:101cf000e14f420005003200b4779f00afd097005b
:101d0000c1779f0029002000030037002fd19700e2
:101d1000b2779f001900200023fb2f008f81410024
:101d20000304e80088ff3700a0779f0028fb2f00fe
:101d30000f0444001900200083ff3700a0779f00a4
:101d40000e0cb30000702000000067006402320037
:101d50000ec8a3000200320064002000d4af9f0030
:101d60000e48a300090032000faa97004401be00ec
:101d70004400be0084af9f0090af9f00a1af9f00c2
:101d8000b2af9f00c3af9f000a0037008faa970031
:101d90004500be0085af9f00050607000002be009b
:101da0000203be0094af9f00a5af9f00b6af9f0097
:101db000c7af9f006022b8006033b8001fa897002b
:101dc000afa897003fa99700cfa997004a05070041
:101dd0000000e0000a003d001fa89700afa8970090
:101de0003fa99700cfa9970003f0a20090af9f00f2
:101df000a1af9f00b2af9f00c3af9f003e00b300f2
:101e00000000eb00b09f9f006022b8006033b80074
:101e10001fa89700afa897003fa99700cfa99700e8
:101e2000990507000000e0003400320064fb2f0039
:101e30000f0242001fa89700afa897003fa9970084
:101e4000cfa99700550607003f9897000000e900ca
:101e50006302b900a2002000110009000202d800ac
:101e6000b09f9f000000e00002003d000000e9007c
:101e7000b09f9f003f9c97000840ea00f3fd0700d9
:101e80001faa9700afaa97003fab9700cfab970070
:101e90005f0607000002be000203be0084a79f0089
:101ea00095a79f00a6a79f00b7a79f006022b80034
:101eb0000600200007ff23000f0507000000e000d8
:101ec00002003d000804e9000b0037006022b80062
:101ed00006002000470224000fa097009fa0970053
:101ee0002fa19700bfa19700080507000000e000a0
:101ef000020035000804e800b89f9f00dfaa9700a1
:101f0000f88f52000f003c000540780072fd07007a
:101f10000002be000203be001fa89700afa89700f2
:101f20003fa99700cfa99700760407000002be00e2
:101f30000203be0094af9f00a5af9f00b6af9f0005
:101f4000c7af9f003f9c9700e90f540015003c006d
:101f50006022b8006033b8001fa89700afa89700b0
:101f60003fa99700cfa99700470507000000e000b0
:101f7000320032001fa89700afa897003fa9970032
:101f8000cfa99700a9050700e00f5000e08f580087
:101f9000e00f5900e08f590028003a00e10f54008b
:101fa000260034000400200005002e00b6e02200c8
:101fb000170124000fa097009fa097002fa1970062
:101fc000bfa19700cc0407000000e00002003d0024
:101fd000730454000100370072045400b89f9f003e
:101fe0006f70970099fd07000002be000203be005b
:101ff00084a79f0095a79f00a6a79f00b7a79f0053
:102000001fa89700afa897003fa99700cfa99700f6
:10201000c3040700850507000205be000004be00da
:102020006000b8006011b80090af9f00a1af9f00a2
:10203000b2af9f00c3af9f00170037001fa89700e3
:10204000afa897003fa99700cfa997007705070091
:102050000205be000004be00a50507000002be0088
:102060000203be001fa89700afa897003fa99700e2
:10207000cfa997005b0607000002be000203be0066
:1020800094af9f00a5af9f00b6af9f00c7af9f0062
:102090000000eb00b09f9f0065ab200014c0b300b0
:1020a000080037003500be003501be000040e100e9
:1020b00001c8e10002d0e10003d8e10003003900cb
:1020c0000442e800f44f5200f6ff3a00a4779f0064
:1020d0003f9897009fb29700008052005fab970037
:1020e000860050000400fb000080500090b79f0065
:1020f0000600e000020032000000e90090b79f00f7
:1021000063006700030032009fb397008703e90074
:1021100097b79f000e28a3005000320061016700ae
:102120000e18a3000f0032003c0090000068a300ce
:1021300006003200b10220000200e000010032007f
:102140008180e8000d0178000d003700b00220000a
:102150000200e000010032000080e8008c007800fe
:102160000e0037000200e000330032003c00900017
:102170000068a300070032000d0178000102200072
:102180000c00780093fd07000000e00006003a0014
:10219000290037008c00780000022000550307005a
:1021a000e10f4000240032008d06e80022003700d5
:1021b0003c0090000068a3000f0032000d01780081
:1021c000010320000c007800f4b79f0085bf9f003a
:1021d000d6b79f00e7b79f007efd07007fb297004c
:1021e0008fba97005fb39700efb397000000e0004d
:1021f0000e003a000e0037008c007800000320002b
:10220000f4b79f0085bf9f00d6b79f00e7b79f0038
:10221000380307007fb297008fba97005fb397002b
:10222000efb39700e10f4000010032008d06e80097
:102230008904e900030037000802be000a03be005b
:102240009fb497000900e000d9ff3c0099b79f00b8
:102250000605be000404be00670037000e38a30068
:102260001e003a00c8a79f00d9a79f00eaa79f00b9
:10227000fba79f009fb49700110037003c0090001f
:102280000068a300070032000d0178000102200061
:102290000c0078004ffd07000000e00006003a0047
:1022a000060037008c0078000002200011030700b0
:1022b000e10f4000010032008d06e8008904e900ca
:1022c0000900e000edff3c0099b79f004fa4970084
:1022d000dfa497006fa59700ffa597006101670035
:1022e0000e18a3000e0032003c0090000068a3000e
:1022f00005003200b10220000200e000250032009b
:102300008180e80023003700b00220000200e000d6
:10231000010032000080e8008c00780032003700b5
:102320000200e000340032003c0090000068a3008e
:10233000030032000d017800010220001600370072
:102340008c00780000022000270037003c0190003c
:102350008100fb00e0aa20000268a3001300320005
:10236000c308dd00010040003002be002003be00b3
:102370000800be000a01be004b060700a4002000b2
:10238000050020006033b8004e060700010320005e
:10239000808040000d0178000c0078000dfd0700e2
:1023a0000000e00013003a0013003700c308dd000e
:1023b000010040003002be002003be000800be0045
:1023c0000a01be0038060700a40020000500200016
:1023d0006033b8003b060700020320000001410003
:1023e0008c00780002007800c2020700e10f400074
:1023f000010032008d06e8002f7097008040e90050
:10240000a1779f000004e000d0ff3a0013003700de
:102410003c0090000068a300070032000d01780026
:10242000010320000c007800eafc07000000e00037
:1024300006003a00060037008c00780000032000f8
:10244000ac020700e10f4000010032008d06e800f9
:102450003f9897000000e900b09f9f003f989700c9
:102460000000e000eaff3c00dfa89700f28f500078
:102470000300340020c1b300a0779f0002003700a2
:102480002fd99700a2779f002f7097008000fb0044
:10249000dfa9970081805100d1af9f000004e000c8
:1024a000100032003c0090000068a30007003200da
:1024b0000d017800e10220000c007800c5fc070047
:1024c0000000e00006003a00060037008c007800ab
:1024d000e002200087020700e10f40000100320007
:1024e0008d06e8002f70970058fc07000002be0020
:1024f0000203be001fa89700afa897003fa997004e
:10250000cfa99700c2040700480407003300370032
:102510003c019000e1aa20000000fb000268a3003b
:10252000130032004300dd00008040003002be0096
:102530002003be000800be000a01be00da05070045
:10254000a4002000050020006033b800dd0507006e
:102550000003b0000d017800800078000c007800c6
:102560009cfc07000000e00011003a001100370059
:102570004300dd00008040003002be002003be00aa
:102580000800be000a01be00c7050700a400200025
:10259000050020006033b800ca0507000003b00042
:1025a0008c00780053020700e10f40000100320068
:1025b0008d06e8002f7297000400fb004300dd0049
:1025c000e1aa2000008040003002be002003be00cf
:1025d0000800be000a01be00ba0507000205be00e1
:1025e0000004be00af7097000140e900a0779f0093
:1025f0000104e000c6ff3a0098af9f00a9af9f001a
:10260000baaf9f00cbaf9f00dfac9700110037003f
:102610003c0090000068a300070032000d01780024
:10262000010320000c0078006afc07000000e000b5
:1026300006003a00060037008c00780000032000f6
:102640002c020700e10f4000010032008d06e80077
:102650008904e9000900e000edff3a001fac970093
:10266000afac97003fad9700cfad97000e38a300f9
:10267000140232009fb097000100e0001102340004
:10268000d8af9f00e9af9f00faaf9f008bb79f00c4
:10269000810478003c0090000068a300070032002d
:1026a0000d017800010220000c00780049fc0700b1
:1026b0000000e00006003a00060037008c007800b9
:1026c000000220000b020700e10f40000100320071
:1026d0008d06e8008904e900eeff3a00f9013700b1
:1026e0000e007800000cb20021003a000e00e0005d
:1026f00005003d008faa97004505be004504be00b9
:1027000085af9f000d0037000e48a3000600320081
:102710000fab97004604be0086af9f004fcdde0092
:102720008a057800050037008fab970047047800d2
:1027300087af9f00cfc4de00614db900e00f5400a9
:10274000e08f5c00e00f5d00e08f5d001b003d004e
:102750003e00b3006000b8006011b80008045000eb
:10276000898458000a0559008b85590013003700e9
:102770000e00e00005003d000fa897004005be00d8
:102780004004be0080af9f000c0037000e48a3003d
:10279000050032008fa897004104be006055b800c4
:1027a00081af9f00050037000fa997004204780011
:1027b00082af9f008004eb006055b800dfa997004e
:1027c0000300e00009003a0014002000d4af9f008d
:1027d000e00f5400e08f5c00e00f5d00e08f5d00d3
:1027e000020032008002eb00d5af9f000e0378009c
:1027f000060cb20096af9f0000042000800f53002b
:102800002c00320003003c000600e000080032000b
:102810003c003700000820009fab9700808f5300da
:1028200010003200000c2000808f530035003a0069
:1028300065ab200014c0b3003500be003501be00fa
:102840000040e10001c8e10002d0e10003d8e1004e
:102850002b0039000442e800f44f5200f6ff3a0022
:102860002700370014c0b300000120000100200041
:102870006011b8000040e10001c8e10002d0e100b1
:1028800003d8e1001e003900450020000000d00000
:102890008180d2000281d2008381d2008502e900ca
:1028a000faff3a000442e800f04f5200f1ff3a000c
:1028b0001300370014c0b300800020000100200086
:1028c0006011b8000040e10001c8e10002d0e10061
:1028d00003d8e1000a003900360020000000d000d3
:1028e0008180d2000281d2008381d2000603e900f8
:1028f000faff3a000442e800f54f5200f1ff3a00b7
:10290000a4779f00af7397000700fb00dfa8970034
:10291000810f500002003d00a1779f0004003700a6
:102920005fa99700800f510001003d00d0af9f00cc
:102930009fb197000300e0000400320063006700cd
:10294000020032008301e90093b79f000ee8a30064
:10295000090032001fb29700dfaa9700850f5200ce
:10296000030034000502520094b79f0002003700b4
:102970000003eb0096b79f00af7397000700fb00c2
:102980008000eb00c1a79f001fb19700800f51008e
:102990000200340000005100c0a79f000e28a300d1
:1029a00044003200610167000e18a3000f003200de
:1029b0003c0090000068a30006003200b102200035
:1029c0000200e000010032008180e8000d01780083
:1029d0000d003700b00220000200e00001003200cc
:1029e0000080e8008c0078000e0037000200e00054
:1029f000100032003c0090000068a3000700320085
:102a00000d017800010220000c00780071fb070026
:102a10000000e00006003a00060037008c00780055
:102a20000002200033010700e10f400001003200e6
:102a30008d06e800cfa197000300e000620032009d
:102a400098b79f00a9b79f00bab79f00cbb79f0068
:102a5000830478003c0090000068a3000700320067
:102a60000d017800010320000c00780059fb0700dd
:102a70000000e00006003a00060037008c007800f5
:102a8000000320001b010700e10f4000010032009d
:102a90008d06e8008904e900eeff3a00c9a79f000f
:102aa0001fb49700afb497003fb59700cfb597001c
:102ab00045003700cfa297000500e0001e0032005d
:102ac0000e38a3001c003a0098b79f00a9b79f00da
:102ad000bab79f00cbb79f00850478003c009000f8
:102ae0000068a300070032000d01780001022000f9
:102af0000c00780037fb07000000e00006003a00f9
:102b0000060037008c00780000022000f900070062
:102b1000e10f4000010032008d06e8008904e90061
:102b2000eeff3a00c9a79f001fb49700afb497000b
:102b30003fb59700cfb59700610167000e18a3005d
:102b40000f0032003c0090000068a3000600320035
:102b5000b10220000200e000010032008180e800a4
:102b60000d0178000d003700b00220000200e000e7
:102b7000010032000080e8008c0078000e00370071
:102b80000200e000100032003c0090000068a3004a
:102b9000070032000d017800010220000c007800cf
:102ba0000cfb07000000e00006003a0006003700ba
:102bb0008c00780000022000ce000700e10f4000ea
:102bc000010032008d06e800dfa897000100e9004f
:102bd0004201dd00d29f9f006301b900020278002c
:102be000c49f9f004300dd00e1aa20008100400057
:102bf000f19f9f0098b79f00a9b79f00bab79f00a9
:102c0000cbb79f0094003700dfa897008100e90050
:102c1000d1af9f00000420001fa99700800f510032
:102c20006400320003003c000200e00008003200b3
:102c30006f003700000820009fa99700808f510087
:102c400048003200000c2000808f510068003a00dc
:102c50000e00e0001a003d007f9a97003404be0089
:102c60002405be000802be000a03be001fb0970084
:102c7000afb097003fb19700cfb197000a040700ab
:102c8000a0779f000000fb00cf80de006109b90043
:102c90000802be000a03be006c0407001fb29700c2
:102ca000afb297003fb39700cfb397000002520036
:102cb00081825a0002035b0083835b0017003700a8
:102cc0000e48a3001a0032001fb29700afb297005f
:102cd0007f9b97003604be002605be000801be009b
:102ce0000400be00f4b79f0085bf9f003f030700ac
:102cf000a0779f000000fb00cf80de000801be002f
:102d00004a0307007fb297008fba97000000520075
:102d100081805a000002be006033b80094b79f0063
:102d2000a5b79f00b6b79f00c7b79f00090037003f
:102d3000ff9a9700150178001fb397001100090052
:102d40000283d800a2002000110009000280d800f0
:102d5000a1779f00af7397000743b000a7779f004c
:102d60002300370050a920000e58a30001003200b4
:102d700040a820001fb29700afb297003fb3970062
:102d8000cfb39700df9897008100e900050033007a
:102d90008703d1000683d3008582d3000482d30049
:102da000f9ff37006f02620060427a00a4779f004b
:102db0000f0037001fb09700afb097003fb19700ea
:102dc000cfb197004f9a97000402e9000500330045
:102dd0008301d1000281d3008180d3000080d30021
:102de000f9ff3700674060000043b000a0779f0004
:102df000bc009000af7297000500fb000168a300c3
:102e0000070032000d017800800078000c00780087
:102e100070fa07000000e00005003a0005003700e6
:102e20008c00780033000700e10f40000100320001
:102e30008d06e8005f9b970064035300d69f9f00b8
:102e4000cf9b9700e3835300c79f9f007f98970015
:102e500068005000f09f9f00dfa897000100e0008d
:102e600069ff3a000e38a300160032004fa1970008
:102e70000200e00013003400020778003c009000dc
:102e80000068a300070032000d0178000102200055
:102e90000c0078004ffa07000000e00006003a003e
:102ea000060037008c0078000002200011000700a7
:102eb000e10f4000010032008d06e8000e07e90036
:102ec000eeff3a00ef99970013407800a0779f003b
:102ed0000004e00058fa3a000d0078004f0778002f
:102ee0004f06be004f05be004f04be002f04b100c8
:102ef00000000600889fbe0001047800b800900022
:102f00008084eb000118a3003a0032001801900001
:102f10000198a30002003a000200e00035003a00e8
:102f20000190a0003104980080047800f90fb200ed
:102f30000200e00002003a0028009000000c780037
:102f4000ea8f540005003a000178a30003003a001c
:102f500088007800d0002000e6ff070018009000ed
:102f6000d8009000810f50000b0032000000e800f4
:102f7000100498001800780009487800000ce80058
:102f800011c0b30040b7200001487800ea8f540018
:102f900018003a00050037008800780009407800e2
:102fa00017000700800478001200370038009000f6
:102fb0000088a3000f00320018019000a8009000c4
:102fc00048009000d2f7070098009000810f500051
:102fd00004003200380090000003b3003004980071
:102fe0008084eb000000eb001004980028009000a3
:102ff000000c7800090078004f04be0000000600b5
:103000000200fa00889fbe00a0ff9f000104780024
:10301000380090000068a30033003a00e20060002e
:1030200005003a000003b300300498001104980032
:103030000080eb002e003700d80490000900e0006b
:1030400006003a0012002000e68057004800900079
:10305000aff707001904980023003700a80090007c
:103060000100e00008003a0071b720002104980038
:10307000010c7800210020005104980011049800f0
:103080000030a0003004980018019000a8009000c3
:10309000480090009ef70700280090008080eb0019
:1030a00011049800aff8970001487800000ce80080
:1030b0002ff89700ea4f50000b003a0038009000bc
:1030c0000088a3000800320018019000a8009000ba
:1030d000480090008ef707000000eb0010049800f5
:1030e000a8009000010c7800aff897000100fb00e9
:1030f0004f04be000080fa000000060000c0da00a5
:10310000000006002800fa00889fbe008a9fbe00cb
:103110008c9fbe0007067800878669000c003b0084
:10312000030478008704780008f0a10009f0a100ea
:10313000840f5000858f5800860f5900890f5c005e
:10314000030033000cf0a20001003a000cf0a100d3
:10315000fe0007006400e1005f00320078014700d4
:103160006408e100610032006c014700748557007b
:103170003200be001201be003a04be001a05be00b5
:103180001e039000be0a90008503530006003d0018
:103190000004fd008104fd000205fd008305fd0023
:1031a0008703ea00050378000df8a300040032004d
:1031b00060041400e0841c0060051d00e0851d0013
:1031c0006022b8007d0320000d38e1008006eb008e
:1031d0000b0039004433dd00f300b20083017300bb
:1031e00039003700848272000d027800e106640025
:1031f0008b85d1000a85d3008984d3000884d3004d
:103200008703e900f7ff3b00080040008980480081
:103210000a0149008b81490004003b006000100056
:10322000e080180060011900e08119000358a30034
:10323000090032008d827200848272006102600097
:103240008301d1000281d3008180d3000080d300ac
:103250000603e8001b0037000348a30017003a00ec
:103260000600e000170034000603e9000d00a3008b
:103270000000480081804800020149008381490024
:103280000348a3000f003a000600e00009003400e4
:103290000603e90000004000818048000201490067
:1032a0008381490001003a000003eb000348a300ba
:1032b000f5ff32006022b8000200370084827200fd
:1032c000618266007500070003f0a1000cf0a70002
:1032d00003f0a000b1003700640147006408e1007a
:1032e00002003a000df8a300a9003a003200be0027
:1032f0001201be00a90037008f1fd100fc02070099
:103300008f87e9000000e00000000600809feb00ce
:10331000f70207008f87e9000000e00000000600c8
:103320002800fa00889fbe008a9fbe008c9fbe00c6
:1033300003866b00850007006400e1004400320052
:103340006408e1004a0032006100e10046003200fa
:103350006108e10049003200ec0647006000b80057
:103360003d02be003d03be00f48657006011b80068
:103370003d04be003d05be007d0320000b0037006c
:103380000000a0008d06e900130032000402420094
:1033900085824a0006034b0087834b0000004000f3
:1033a00081804800020149008381490008025200df
:1033b00089825a000a035b008b835b00f0ff3b00ad
:1033c0000802420089824a000a034b008b834b00ab
:1033d0008d06e900edff3a00848272008682720059
:1033e000f707b2008782720001003200150020004a
:1033f0001e0490003e0b900006035400e63fb00010
:103400000368a300070032000000a7000500a00029
:103410008301d1000281d3008180d3000080d300da
:103420000603e8008301d1000281d3008180d3002c
:103430000080d3000002eb000482d20017000700d6
:1034400003f0a1000cf0a70003f0a0005300370028
:10345000640247006408e1004d0032003400be0001
:103460003401be00f6ff37006108e1004800320079
:103470006011b8006000b800f1ff370003ff2700bb
:1034800002002000fbff3700801feb0098020700be
:103490008f87e9000000e00000000600180020000f
:1034a00057002000080453000d003d0006002000d6
:1034b00097fc2f000740e1001e0034008482720058
:1034c000610260008301d1000281d3008180d300ba
:1034d0000080d3000804e800f8ff3a00470020000d
:1034e0006104600005047400040464000d003200ef
:1034f00061004000e080480060014900e08149002f
:1035000003b8a500070032000603e8006538e100b3
:1035100004003a008301d1000281d3008180d300ee
:103520000080d300f87f20000830e1000300350060
:10353000080378006000b8006011b8004433dd0073
:10354000f300b20083017300000006006804470026
:103550000294be000094be00fc0447008694be00a6
:103560008494be0009007800aa02070008007800d1
:10357000a802070099007800814f70000b003b0003
:103580000800be00830207004f00b10003003700af
:10359000f3ff2700f2ff2f006110b9004f06be00b5
:1035a0004f05be004f04be000080fa000000060078
:1035b0008103780096f707000001be006000b800a4
:1035c0000478a30013003a006220e10015003e00d9
:1035d0000d0039008301d1000281d3008180d30026
:1035e0008301d1000281d3008180d3008301d10007
:1035f0000281d3008180d3000538b000c42add00e9
:10360000f300b2008381720007f0a70003f0a0006e
:1036100000000600f3ff2700f2ff2f006110b90041
:10362000fbff370003ff2700f7ff37001400fa0005
:10363000889fbe008a9fbe008c9fbe000004be0013
:103640000205be00680047000a90be000890be0058
:10365000700207000070a7000bf0a1000bf8a30098
:1036600020003a009e0990000e099000fe00900094
:103670006e0090009e02900034432000848252002d
:10368000c6ff32000a003c00b4fc2f000428e10011
:10369000140034008301d1000281d3008180d30063
:1036a0000080d3008502e800faff3a00bbff370034
:1036b000b40020000428e10007003c0000004000a6
:1036c0008180480002014900838149008502e900a8
:1036d000faff3a00b1ff3700030028000200200083
:1036e000010037006011b8006000b800abff370080
:1036f000889fbe0000827000040271000482710085
:103700002400320036432000c50020008383cf0010
:103710000a0039000541b1008283cf00070039005b
:103720000541b1008183cf00040039000541b1009b
:103730008083cf00010039000541b10085c35300eb
:103740006022b800120032000a003b00848272003e
:10375000610260008301d1000281d3008180d30027
:103760000080d3000603e8008743e800f7ff3a0033
:103770000700370000004000818048000201490036
:10378000838149000603e9008743e900f9ff3a0015
:1037900042ff07004f04be00000006001400fa00bc
:1037a000889fbe008a9fbe008c9fbe0004067800e2
:1037b0000004be000205be00680047000a90be007b
:1037c0000890be00130207006200e1000800be007e
:1037d0000a01be00040020000b003a001e02900007
:1037e000e43fb1006e009000fe0090000e099000d2
:1037f0009e099000f300b20005fe23008581710050
:103800000bf0a70003f0a000040e780063ff370060
:103810002800fa00889fbe008a9fbe008c9fbe00d1
:1038200003866b0049ff07000028a30064003a00ec
:103830000128a30067003a000008a30062003a00d4
:103840000108a30065003a001e009000be08900029
:1038500081064000ed3fb100f4805700ee0190007a
:10386000111ab8008e099000311bb8009e09900013
:10387000311cb800511db800f48557004600070000
:10388000fe0190003a0007008b85e8003e0007002b
:103890008e09900040000700ee0190003400070000
:1038a0008b85e800380007008e0990004000070073
:1038b0009e0990001b18b800890440000a85480042
:1038c000fe019000340007008b85e80038000700f7
:1038d000ee019000300007008e0990001b18b80020
:1038e000890440000a8548000a98a30008003a00ad
:1038f0000402420085824a0006034b0087834b0086
:1039000008044c0089844c000a054d008d06e9002e
:1039100084827200850273004c3add0085027200d9
:103920000100320015002000443ade001400b2000d
:103930004538de00cb45dd000b007000c540de00e1
:10394000cb4ddd008b8070004549de00cb55dd009e
:103950000b017100c551de000d037800cffe07009a
:1039600003f0a1000cf0a70003f0a0000bff37004c
:103970001b18b8008502400006834800e0834b0016
:1039800060044c00070037001b18b8000603400015
:1039900087834800faff37001b18b80087034000f0
:1039a00008844800e0844c0060054d0000000600db
:1039b0001b18b8000804400089844800faff37004b
:1039c0000108a300f2fe3a005800be005801be00f4
:1039d000e3ff37000008a300edfe3a000904780079
:1039e000f9ff370007f0a200c6fd37006022b800db
:1039f000060220000000d0008180d2000482d200a4
:103a00008582d2000000a0000202520083825a0088
:103a1000030031000202420083824a000000a1003c
:103a20000603e900f3ff3a0000000600020ab900ad
:103a3000001bb9000200b800810042008100430071
:103a400000000600889fbe008a9fbe00300442002e
:103a5000b0844a0030054b0090854b006000b100f7
:103a60000898be000a90be000440e10005c8e100cd
:103a700006d0e10007d8e1000200310068004000f4
:103a80001008e8004f05be004f04be00000006000d
:103a9000889fbe008a9fbe003004be002005be0085
:103aa0000418540005985c0006185d0007985d0036
:103ab000110020000440e10005c8e10006d0e1004b
:103ac00007d8e100010039008000eb0010881000e9
:103ad0004f05be004f04be00000006001200fa00b1
:103ae000889fbe008a9fbe008c9fbe00e0b79f00eb
:103af000f1b79f0082bf9f0093bf9f000605be00e5
:103b00000404be000000eb00d0b79f00c0b79f00c8
:103b1000b0b79f00a0b79f0090b79f000006eb00d2
:103b20005fb19700cfb09700820141003fb097008e
:103b30000200e00004003d00370007007e805700cf
:103b4000c0ff070003003700330007007e805700e6
:103b5000cfff0700dfb697000d00e0000c00350036
:103b60006fb29700ffb297000fbb97009fbb970003
:103b700010002000010020006011b8000002720057
:103b80008182720002037300838373001b000700ad
:103b90000c06e80001042000810f5600e0ff3a0007
:103ba0000d00e00004003d000802be000a03be0054
:103bb0007e805700a3ff07005fa897000000e00089
:103bc00005003a001fb29700afb297003fb39700cd
:103bd000cfb39700090007006fb09700ffb09700c0
:103be0000fb997009fb997004f06be004f05be0062
:103bf0004f04be000080fa0000000600010007002c
:103c000000000600a4b79f00b5b79f00c6b79f008d
:103c1000d7b79f00000006004f09de0082817100c7
:103c2000b3b79f004f01de008180400082807000aa
:103c3000a1b79f008fb097004f09de000000400041
:103c40000200700090b79f007fa897004f01de0030
:103c5000818040008280700081b79f000d000700c6
:103c60004f3ade000000400004007000f0af9f00fb
:103c7000080007000402420085824a0006034b0048
:103c800087834b00dfff07000802be000a03be0067
:103c9000000006002fb29700bfb297004fb3970005
:103ca000dfb3970000000600881f7800180020008e
:103cb000881f780089ff07008f87e9004f0478008c
:103cc00000000600801feb0084ff07008f87e900db
:103cd00000000600889fbe008a9fbe00e00f5000d3
:103ce000e08f5800e00f5900e08f59000c003d00b4
:103cf0006044b8006055b8000000540081805c004a
:103d000002015d0083815d0018002000150007009e
:103d100008003d00180007000004eb000500370014
:103d20000004eb000f00070002003d001200070036
:103d300018002000dcff07000800e0000600320049
:103d40006022b8006033b8000000520081805a0041
:103d500002015b0083815b004f05be004f04be0083
:103d600000000600e00f5200e08f5a00e00f5b00f9
:103d7000e08f5b00000006006044b8006055b800aa
:103d80000402540085825c0006035d0087835d00a9
:103d900000000600889fbe008a9fbe008c1f78002e
:103da000e00f5000e08f5800e00f5900e08f5900fd
:103db0000d003d006044b8006055b800000054009c
:103dc00081805c0002015d0083815d001c00200099
:103dd0000820e10009a8e1000ab0e1000bb8e10009
:103de0000d003d00080037000006eb00e00f520018
:103df000e08f5a00e00f5b00e08f5b0006003d00a3
:103e00006044b8006055b8000402540085825c002c
:103e100006035d0087835d00aaff07000c00e00039
:103e2000060032006022b8006033b8000000520083
:103e300081805a0002015b0083815b004f0678009d
:103e40004f05be004f04be0000000600889fbe0064
:103e50008a9fbe008c1f78000006eb00e00f500028
:103e6000e08f5800e00f5900e08f590007003d0037
:103e70006044b8006055b8000000540081805c00c8
:103e800002015d0083815d001c002000e00f5200f4
:103e9000e08f5a00e00f5b00e08f5b0007003d0001
:103ea0006044b8006055b8000402540085825c008c
:103eb00006035d0087835d000c00a2007c00070004
:103ec0000c00e000060032006022b8006033b80049
:103ed0000000520081805a0002015b0083815b0078
:103ee0004f0678004f05be004f04be0000000600dc
:103ef000889fbe008a9fbe008c9fbe000404be0047
:103f00000605be00809fbe00829fbe002f000700f6
:103f1000040678000800be000a01be002b0007005e
:103f2000840678004f03be004f02be008d4f76001e
:103f30007fb0970013003300f0ff2f008b8f6b00d2
:103f400006003b000d0666000c00a7000a003700c3
:103f500007f0a600100020000a003700880f52006a
:103f6000898f5a008a0f5b008b8f5b00030039003a
:103f70001000200001003e000000200007f0a70014
:103f80000000ea004f06be004f05be004f04be0011
:103f900000000600e48240001078a3000700320011
:103fa000640240001178a3003400be001401be007a
:103fb000040032000330a700000006003500be00f8
:103fc0001501be000330a0000000060005ff270019
:103fd00005826100070032000428e1000100320080
:103fe000240005000600070001003a004400050017
:103ff0000408050002000700f9ff3a00140005005c
:104000006f8261008102700085027100850272007a
:1040100000000600800078005002be005003be0081
:104020004439de00f700b200f37f20000301610095
:10403000090032000218e10016003a008501720002
:1040400083017300838173000008200015003a008b
:1040500040002000130037008501720083017300c7
:104060008381730005003a0004a8be0006a8be00c4
:10407000100020000b0037000201e900040242009a
:1040800085824a0006034b0087834b000748a30044
:10409000f9ff32000740a00004a8be0006a8be0039
:1040a0002000200080009800920098000000060088
:1040b000889fbe008a9fbe008c9fbe000404b8008b
:1040c0000506b8008904460060854e000606b80063
:1040d0000a054600e0854e000706b8008b0546003d
:1040e000040eb800890446000a854e00e0854d00a4
:1040f000050eb8000a0546008b854e00060eb80076
:104100008b0546000416b8000a0546008b854e0054
:104110000516b8008b054600041eb8008b05460046
:104120000800be000a01be004f06be004f05be00db
:084130004f04be000000060070
:020000040000fa
:104138004c6f000077200000436f0000737400008c
:10414800204c0000616200007320000047610000fd
:104158007261000067650000204400006f6f000076
:1041680072200000496e000074650000726600004d
:104178006163000065200000537400006172000054
:10418800746900006e6700000d0a0000004c000012
:10419800202d000020530000746100007475000099
:1041a800733a000020540000656d00007020000084
:1041b80025690000203a000020250000342e000068
:1041c800316600002064000065670000432000009d
:1041d80028250000632900002053000075700000a6
:1041e800706c000079200000253400002e3100009a
:1041f80066200000566f00006c740000730d00000c
:104208000a000000543a000020250000342e000067
:1042180031660000206400006567000072650000d8
:1042280065730000204300000d0a00000000000034
:020000040000fa
:104238000008000020010000000000002009000024
:1042480004000000020000004300f4000100000028
:10425800840a0000ca000000020000003031320069
:10426800333435003637380039414200434445007d
:1042780046003000313233003435360037383900e3
:10428800616263006465660000286e00756c6c00ee
:1042980029000000010000000000000000000a00e2
:1042a80000000000000000000064000000000000a2
:1042b80000000000e80300000000000000001000fb
:1042c800270000000000000000a086000100000098
:1042d8000000000040420f000000000000008000c5
:1042e80096980000000000000000e100f5050000bd
:1042f8000000000000ca9a003b0000000000000017
:10430800e40b5400020000000000e80076481700a3
:10431800000000000010a500d4e800000000000024
:10432800a0724e0018090000000040007a10f30047
:104338005a0000000080c600a47e8d000300000023
:1043480000c16f00f2862300000000008a5d78003b
:104358004563010000006400a7b3b600e00d00004b
:1043680000e889000423c7008a000000240900002f
:1043780060010000020000000000000000000000d2
:10438800f03f000000000000000024004000000092
:10439800000000000059400000000000000040003c
:1043a8008f400000000000000088c30040000000ab
:1043b800000000006af8400000000000008084004f
:1043c8002e41000000000000d012630041000000f0
:1043d80000008400d7974100000000000065cd0070
:1043e800cd410000000020005fa002004200000054
:1043f80000801d00af1544000000000040593e0039
:1044080029460000000000000000f0007f000000c6
:104418000000000000f07f00000000000000000025
:10442800f07f0000000000000000f0007f000000a6
:104438000000000000f07f00000000000000000005
:10444800f07f0000000000000000f0007f00000086
:104458000000000000f07f000000000000000000e5
:10446800f07f0000000000000000f0003f000000a6
:1044780000a0990099b93f000000000040e17a00cf
:10448800843f00000000e0004d6250003f00000043
:1044980000e0e200361a3f000000000080b5f80096
:1044a800e43e00000000a000f7c6b0003e00000097
:1044b80000a0f200d77a3e0000000000e08e7900ec
:1044c800453e00000000e0000b2e11003e000000f9
:1044d80000e0df007cdb3d000000000000a19c0044
:1044e800c73b0000000000004c48b4003900000041
:1044f800000020006ca13700000000000000000050
:1045080000000000000000000000000000000000a3
:104518000000000000000000000000000000000093
:104528000000000000000000000000000000000083
:104538000000000000000000000000000000000073
:104548000000000000000000000000000000000063
:104558004e0b00002600000002000000750b000052
:1045680000750b000900000000020000770b000036
:1045780000770b000e0201000000000000000000a0
:104588000000000006020200000000004e0b0000c0
:10459800740b000006000000000000007a0b000009
:1045a800020000000200000001000000dc22800080
:020000040000fa
:0445b80000000000ff
:020000040000fa
:0200000401f009
:04000000ffff0000fe
:020000040000fa
:0200000401f009
:04000800ffff0000f6
:020000040000fa
:0200000401f009
:04000c00f8ff0000f9
:020000040000fa
:0200000401f009
:04001000bfff00002e
:020000040000fa
:0200000401f009
:040014006fff00007a
:020000040000fa
:0200000401f009
:04001800ffff0000e6
:020000040000fa
:0200000401f009
:04001c00fdff0000e4
:00000001FF
