:02000000FA28DC
:10000800F000030E83120313A0000408B800A10136
:100018008C1C2328B90A3908053A031D2228BA0A74
:10002800B9013A080A3A031D2228BB0ABA013B085B
:100038000A3A031D2228BB010130BC008C108C1E1B
:10004800F2287121CD000617981C32281A08CD0015
:100058001A08CD0018121816FE30CE00181D3828C0
:100068001A08CD00FF30CE00CE08031D43284D08E6
:10007800543A031D4328CC010130CE0086170E30B8
:100088004C020318F2284E0BF2283D304C0784002E
:1000980083134D088000CC0A4C084B06031D5728D3
:1000A800CE018613D9014C08033A031DBD283E082A
:1000B800D1003F08D00003305105D5000310D10C02
:1000C8000310D10C03305105D4000310D10C0310D8
:1000D800D10C03305105D3000310D10C0310D10CFF
:1000E80003305105D2000F305005D80009305802AE
:1000F800031C882807305005023AD8000310D80D91
:100108000310D80D0310D80D30305207BD00303021
:100118005307BE0030305807BF0070305005D70075
:10012800570E0F39D7000330520753075807CB0033
:1001380057080319BD28013A0319BD28033A0319C2
:10014800B528013A0319B728073A0319B928013A1B
:100158000319BB28033A0319BD28013A0319BD281E
:10016800BD28CB0ABD28CB0ABD280230CB070430F6
:10017800CB074C084B06031DE72857080319E72847
:10018800013A0319E728033A0319D428013A031955
:10019800E728073A0319E728013A0319E728E72867
:1001A800A1014B0321020318E1283D3021078400F7
:1001B80083130008D907A10AD5283C304B078400CF
:1001C8008313590880004C084B02031CF1284E0881
:1001D800FE3A0319F1284E0A0319CE01061338080E
:1001E8008400200E8300F00E700E090083120313A2
:1001F800A401A501A601CF012F2183160F21831287
:10020800861383165C214C080E3A031D07294B30D0
:10021800A7007B2107293F308500831285018316BB
:10022800860183128601883083168100C0308B00D6
:10023800073083129F00083083168E000D3083121A
:100248009200023083168C008C1683128C01FA30CF
:10025800831692000800B901BA01BB01BC01CD01A7
:10026800CC010E30CB00D001D101D9010800831395
:100278007F08840000087F060319572983137F0825
:100288008400800A83137F0884000A300002031C5C
:100298005B2983137F088400800183137F0884000F
:1002A8007F0880005B2983137F0884008001080091
:1002B8000630860419309900243098008312981764
:1002C800181683169816831286150800B700990029
:1002D8008316981C6D2983120800A201A30198189F
:1002E8007929181979291A08A20022080800B501E5
:1002F800B601B5010E303502031897290C1E822964
:100308003D303507840083130008B600B60803198A
:10031800942906146A213D3035078400831380012F
:100328000610B50A7E290800FF00FF017F08831622
:1003380003139B001C141A08FF000800FF007F0825
:10034800831603139B007F089A008B131C155530E6
:100358009D00AA309D009C149C18B0298B1708009A
:104200000D000A0053004E004100500020000D0038
:104210000A00560065007200200030002E003000B9
:0242200030006C
:02400E00583F19
:00000001FF
