:02000000C32813
:10000800F000030E83120313A0000408B8008C1C30
:100018006628B90A3908053A031D6528BA0AB901DC
:10002800A1010518A10A6030A2006430A3002821AC
:10003800A1018518A10A6130A2006530A30028211A
:10004800A1010519A10A6230A2006630A300282187
:10005800A1018519A10A6330A2006730A3002821F5
:100068003A080A3A031D6528BB0ABA013B080A3A4E
:10007800031D6528BB010130BC00BD01C601043069
:100088004602031865280310460D3E3E840083137C
:100098000008C700840A0008C80047084804031974
:1000A8006328C703470A0319C8030310460D3E3ED9
:1000B8008400831347088000840A48088000C60A21
:1000C80043288C108C1EBC285E21D900981C7528EA
:1000D8001A08D9001A08D900181218160617FE307F
:1000E800DA00181D7C281A08D9008617FF30DA00B4
:1000F800DA08031986175908543A031D8628DB08BD
:10010800031D0617DA08031D97285908543A031DDA
:100118009728D8010130DA00493058078400831342
:1001280059088000D80A0E3058020318B1285A0B13
:10013800B128493058078400831359088000D80A29
:1001480058085706031DAB28DA018613061358080A
:10015800033A031DB1280E30D70057085802031878
:10016800BB285A08FE3A0319BB285A0A0319DA01B0
:1001780038088400200E8300F00E700E09008312E8
:100188000313A401A501A6011E218316F720DB0194
:10019800BD080319E62886170613A40104302402B3
:1001A8000318CC28603024078400831301308000B2
:1001B8000310240D3E3E840083138001840A8001CD
:1001C800A40AD22886138316492168219221580847
:1001D8000E3A031DF4285730A700AF21D801C601F5
:1001E8005A085721E9283F30850083128501831674
:1001F800860183128601883083168100C0308B0007
:10020800073083129F00083083168E000D3083124A
:100218009200023083168C008C1683128C01FA30FF
:100228008316920001308312BD00861206128513D0
:1002380005130800B901BA01BB01BC01C601D90107
:10024800D8010E30D7000800831322088400000864
:10025800210603194429831323088400800A831381
:10026800230884000A300002031C4829831323084A
:100278008400800183132208840021088000482913
:10028800831323088400800108000630860419308F
:100298009900243098008312981718168316981618
:1002A800831286150800B70099008316981C5A29EE
:1002B80083120800A101A201981866291819662955
:1002C8001A08A10021080800E008031D742901305C
:1002D800BE00BF012C30C4000130C500BB010617A9
:1002E800E108031D80290130C000C1012C30C40081
:1002F8000130C500BB010617E208031D882901303B
:10030800C200C301BB010617E308031D91292C3065
:10031800C4000130C500BB01061708003E083F04B1
:100328000319982986169929861240084104031949
:100338009F290616A0290612420843040319A62974
:100348008517A7298513440845040319AD290517FE
:10035800AE2905130800B501B601B5010E30350206
:100368000318CB290C1EB62949303507840083139E
:100378000008B600B6080319C829061457214930E1
:1003880035078400831380010610B50AB2290800D6
:10039800FF00FF017F08831603139B001C141A0833
:1003A800FF000800FF007F08831603139B007F08E7
:1003B8009A008B131C1555309D00AA309D009C1483
:0803C8009C18E4298B170800C2
:104200000D000A00530049004D0043004F002000FC
:1042100049004F000D000A005600650072002000A2
:0842200030002E0030003000D8
:02400E00583F19
:00000001FF
