:020000002228B4
:10000800F000030E83120313A0000408AF008C1C39
:100018001B28B00A30080A3A031D1A28B10AB00191
:1000280031080A3A031D1A28B20AB1018C102F08A8
:100038008400200E8300F00E700E0900831603134F
:10004800A2208312BF20A401A101A201A301A6013D
:10005800A701A801A901AA01AB01A50106178617E6
:10006800E830AC000330AD00042106138613C3202A
:10007800A40025083106031953283108A500AC014E
:100088008618AC0A2930AD002A30AE00E320AC0156
:100098000618AC0A2630AD002730AE00E320A908C8
:1000A800031D61288615A301061786179630AC0034
:1000B800AD010421061386138611230803196B2842
:1000C800013A03197A28033A03198D28A028A608AB
:1000D80003193B280130A300EF30AC00CF20A1006A
:1000E800DF30AC00CF20A200B2013B28A4080319DE
:1000F8003B28A108031D8A2886158617FA30AC000C
:10010800AD010421861186130230A300A103A401C6
:100118003B28A40803193B28A401A208031D9E2814
:1001280006158617FA30AC00AD01042106118613B6
:100138000330A300A2033B28A3013B28FF3085001E
:100148003330860083128601883083168100C030E0
:100158008B00073083129F00083083168E0005300D
:1001680083129200023083168C0083128C01FA30BD
:10017800831692000800B001B101B2010800AC0179
:100188000A303202031CCD28B2010130AC004030E5
:1001980086062C080800AD00AE01303083168604B0
:1001A80083122D088316860583122C0886050509F7
:1001B800AE0030308316860483122E08080083139D
:1001C8002D08840000082C060319FF2883132E0825
:1001D8008400800A83132E0884000A300002031C5E
:1001E800032983132E088400800183132D088400BB
:1001F8002C088000032983132E088400800108003E
:10020800AE01AD1B16292C082D0403191629300838
:10021800AE002E08300603190D29AC032C0A031969
:06022800AD0305290800EA
:02400E00583F19
:00000001FF
