:020000040000FA
:040000009EEF00F07F
:10001800E9CF00F0EACF01F0E1CF02F0E2CF03F040
:10002800D9CF04F0DACF05F0FACF06F0FBCF07F00E
:10003800F3CF08F0F4CF09F0F6CF0AF0F7CF0BF0C2
:10004800F8CF0CF0F5CF0DF0D8CF0EF0E0CF0FF0D1
:10005800106E9EA24DD0182A0A0E186248D0192A8E
:10006800186A0A0E196243D01A2A196A8A70366AFF
:10007800030E366038D0EA6A2E0E3624E96EEF5049
:10008800D8B405D0EA6A2E0E3624E96EEF06EA6A7D
:100098002E0E3624E96EEF50D8B414D03650D8B4AA
:1000A80007D0010AD8B406D0030AD8B407D019D0AB
:1000B8008B8017D08B84320E2E6E13D08B86320E27
:1000C8002E6E0FD03650D8B407D0010AD8B406D057
:1000D800030AD8B405D005D08B9003D08B9401D0F7
:1000E8008B96362AC5D70A0E1A6201D01A6A9E92D2
:1000F80000C0E9FF01C0EAFF02C0E1FF03C0E2FF60
:1001080004C0D9FF05C0DAFF06C0FAFF07C0FBFF2D
:1001180008C0F3FF09C0F4FF0AC0F6FF0BC0F7FFE1
:100128000CC0F8FF0DC0F5FF10500FC0E0FF0EC067
:10013800D8FF1000116A126A136A41D855D880CFC7
:1001480012F0116A11BE03D0030E1160F8D7EA6AE3
:10015800260E1124E96E010E1214EF6EEA6A260EBD
:100168001124E96EEF50D8A402D08A8401D08A9471
:10017800D88012AED8901232EA6A260E1124E96E9F
:10018800EFCF14F02A0E1124156E320E1124166EBC
:1001980052D8EA6A2A0E1124E96EEF50D8A40DD07D
:1001A800EA6AD89011341E0FE96EEECF13F0EA6AAE
:1001B8002E0E1124E96E13C0EFFF112AC3D7700E5B
:1001C800D36E070E926E936A946A806A816A826A15
:1001D8000F0EC16EC00EF26E0D0ECA6E020E9D6E2F
:1001E8009F6AFA0ECB6E1200146A186A196A1A6AA4
:1001F800146A14BE03D0040E146012D0EA6A260EE4
:100208001424E96EEF6AEA6A2A0E1424E96E010ED4
:10021800EF6EEA6A2E0E1424E96EEF6A142AE9D703
:10022800366A320E1E6E1F6A050E206E216A050E92
:10023800226E236A120015C0E9FFEA6AEF5014180B
:10024800D8B414D016C0E9FFEA6AEF2A16C0E9FF4D
:10025800EA6A090EEF640ED016C0E9FFEA6AEF6A8F
:1002680015C0E9FFEA6A14C0EFFF04D016C0E9FF21
:06027800EA6AEF6A1200C1
:00000001FF
