:020000040000FA
:1000000087EF0AF01200FFFFFFFFFFFFFFFFFFFF78
:10001000FFFFFFFFFFFFFFFF99EF07F01200FFFF59
:10002000FFFFFFFFFFFFFFFFFFFF03003C15000086
:10003000CC000000030000003B150000D0000000D1
:10004000010000003A150000CF0000000100000090
:10005000D9CFE6FF0001CF51020A09E0030A05E00B
:10006000010A07E1C294C29604D0C28402D0C294AD
:10007000C2869E9CC282C2B2FED70001CF51020A44
:100080000FE0030A07E0010A0FE1A7DB2FDB000105
:10009000010E04D0A2DB3CDB0001020ECF6F04D0C6
:1000A0009CDB48DB0001CF6BE552E7CFD9FF1200A4
:1000B000D9CFE6FFE1CFD9FF100EE1260C0EDB6AA7
:1000C0000D0EDB6A0E0EDB6A0F0EDB6A0001940573
:1000D00011E1600E9DDB0EE3D880340E7C550E0ED0
:1000E000C4DB08E37CC05BF07DC05CF0CC0E70DB51
:1000F0000C0E1BD0020E0001945D19E1140E0001DC
:100100007C5D100E7D59000E7E59000E7F590FE365
:10011000D880E40E7C55120EA8DB09E37CC05DF0AC
:100120007DC05EF07C0E54DB110E4ADB06D0010E62
:10013000F36E0E0EF3CFDBFF0F0EDB6AD9500E0FFE
:10014000E96EDACFEAFFEE50ED103BE12FDB000164
:100150005B515D5D106E5E515C558EDA6DC010F0C6
:100160006EC011F0F9DA08E1EE50111805E1EE5019
:10017000121802E1EE50131808E0040EDBCF6DF008
:10018000050EDBCF6EF0010EAADA9BDA2DDBFEE165
:1001900048DB2FDA7CDB11AE02D0126813682BDB50
:1001A00008E1EE50111805E1EE50121802E1EE5090
:1001B000131807E0000EDFCF67F0010EDBCF68F009
:1001C0008EDA0001940511E1600E34DB0EE3D88075
:1001D000340E80550E0E4FDB08E380C05FF081C007
:1001E00060F0CC0EF5DA0C0E1BD0020E0001945D0F
:1001F0001AE1140E0001805D100E8159000E825923
:10020000000E835910E3D880E40E8055120E33DBC4
:100210000AE380C061F081C062F07C0ED9DA110E71
:10022000CFDADB6A02D0020EA1DA0E0EDB50020B2F
:100230003BE1BCDA00015F51615D106E62516055B7
:100240001BDA6FC010F070C011F086DA08E1EE50D2
:10025000111805E1EE50121802E1EE50131808E0F3
:10026000040EDBCF6FF0050EDBCF70F0010E37DA36
:1002700028DABADAFEE1E7DABCD910DB11AE02D037
:1002800012681368B8DA08E1EE50111805E1EE5073
:10029000121802E1EE50131807E0000EDFCF69F0EC
:1002A000010EDBCF6AF01BDA0001940518E1D10ED4
:1002B0000001845D080E8559000E8659000E87598D
:1002C0000EE3D880290E84550B0EDBDA08E384C0D8
:1002D00063F085C064F0090E7BDA0A0E1BD0020EB3
:1002E0000001945D1AE1600E0001845D0B0E8559DA
:1002F000000E8659000E875910E3D880F80E8455F9
:100300000D0EBFDA0AE384C065F085C066F0850E85
:100310005FDA0C0E55DADB6A02D0040E27DA0E0E15
:10032000DB50040B43E1040EDB6AF00EF36E050EA6
:10033000F3CFDBFF090EDADA00016351655D106E61
:100340006651645599D971C010F072C011F004DA89
:1003500008E1EE50111805E1EE50121802E1EE50DE
:10036000131808E0040EDBCF71F0050EDBCF72F03E
:10037000010EB5D9A6D938DAFEE16EDA3AD995DAA6
:1003800011AE02D01268136836DA08E1EE50111887
:1003900005E1EE50121802E1EE50131807E0000ECE
:1003A000DFCF6BF0010EDBCF6CF099D9D9500C0F79
:1003B000E96EDACFEAFF010EEE1804E1ED5002E13A
:1003C000C2EC08F0E3D9000174970001936B0E0EA4
:1003D000DBCFE6FF0F0EDBCFE6FF61EC05F0E55269
:1003E000E552100EE15C02E2E16AE552E16EE5528F
:1003F000E7CFD9FF120000018E6B000174A90CD069
:100400007CC0B6F07DC0B7F080C0B8F081C0B9F054
:1004100084C0BAF085C0BBF06DC010F06EC011F0A2
:10042000126A136AFED96DC00BF06EC00CF0EAD9E7
:1004300002C07CF003C07DF004C07EF005C07FF0F8
:10044000040E000139DAFEE122DA11AE02D01268A0
:1004500013684CD9060E30DAFEE16FC010F070C0A0
:1004600011F0126A136AEFD96FC00BF070C00CF074
:10047000C9D902C080F003C081F004C082F005C079
:1004800083F0040E00011FDAFEE108DA11AE02D09B
:10049000126813683DD9060E16DAFEE171C010F03D
:1004A00072C011F0126A136AD7D971C00BF072C012
:1004B0000CF0A8D902C084F003C085F004C086F017
:1004C00005C087F0040E000105DAFEE1EED911AE99
:1004D00002D0126813682ED9060EFCD9FEE1DC0E9C
:1004E00097D906E3D880B40E7C55150EBED902E22A
:1004F000010E13D0DC0E9ED906E3D880B40E8055D1
:10050000150EB9D902E2040E08D0D880440E0001BD
:1005100084550D0EB6D904E2050E00018E118E6FC2
:100520007CC010F07DC011F0DCD910C088F011C083
:1005300089F080C010F081C011F0D3D910C08AF0CA
:1005400011C08BF084C010F085C011F086C012F08D
:1005500087C013F0C6D9000E125A135A10C08CF07F
:1005600011C08DF00001800E891502E0886B896B47
:10057000893509E28851F0080F0E895504E2F00E22
:10058000886F0F0E896F0001800E8B1502E08A6B59
:100590008B6B8B3509E28A51F0080F0E8B5504E204
:1005A000F00E8A6F0F0E8B6F0001800E8D1502E02A
:1005B0008C6B8D6B8D3509E28C51F0080F0E8D55CB
:1005C00004E2F00E8C6F0F0E8D6F000174A90FD036
:1005D00088C0BCF089C0BDF08AC0BEF08BC0BFF03F
:1005E0008CC0C0F08DC0C1F0749987EC05F0C6EFE7
:1005F00003F0040EDBCF0BF0050EDBCF0CF0060E84
:10060000DBCF0DF0070EDBCF0EF0DDEC09F0025072
:10061000145C106E03501558116E04501658126E6B
:1006200005501758136E10C0DFFF010E11C0DBFF1D
:10063000020E12C0DBFF030E13C0DBFFD9CFE9FFB0
:10064000DACFEAFFEECF06F0EECF07F0EECF08F0FC
:10065000EFCF09F0100E0B6E0C6A0D6A0E6A15ECE6
:100660000AF006C0DEFF07C0DEFF08C0DEFF09C0DB
:10067000DDFFDD52DD521200116E126A136A10C0E6
:100680000BF00C6E12C00DF013C00EF0040EDBCF99
:1006900006F0050EDBCF07F0060EDBCF08F0070EE5
:1006A000DBCF09F049EC0AF0040E06C0DBFF050EB3
:1006B00007C0DBFF060E08C0DBFF070E09C0DBFF2B
:1006C0001200080EDBCF14F0090EDBCF15F00A0E76
:1006D000DBCF16F00B0EDBCF17F00A0E1200F36E15
:1006E0000C0EF3CFDBFF0D0EDB6A12007C0EE96E01
:1006F000000EEA6EEE50102400017C6FEE501120C7
:100700007D6FEE5012207E6FEE5013207F6F12002F
:10071000800EE96E000EEA6EEE5010240001806F2C
:10072000EE501120816FEE501220826FEE50132098
:10073000836F1200840EE96E000EEA6EEE501024F4
:100740000001846FEE501120856FEE501220866FED
:10075000EE501320876F1200126A136AD950040FEB
:10076000E96EDACFEAFFEE5010181200E76E0E0EB7
:10077000DBCF10F00F0EDBCF11F0E75010120E0E92
:1007800010C0DBFF0F0E11C0DBFF120000017C6BFD
:100790007D6B7E6B7F6B0001806B816B826B836BEB
:1007A0000001846B856B866B876B1200040EDB6A1D
:1007B000C00EF36E050EF3CFDBFF120E76EF04F0E2
:1007C000F36E090EF3CFDBFF0A0EDB6A0B0E12008D
:1007D000F36E080EF3CFDBFF1200C3CF10F0C4CFCF
:1007E00011F0126A136A1200D890143615361636B4
:1007F0001736E8061200D9CFE9FFDACFEAFFEE504C
:100800001018120012C00DF013C00EF0DDEF09F049
:1008100000017C5D0B0E7D59000E7E59000E7F5944
:1008200012007CC006F07DC007F07EC008F07FC0DB
:1008300009F012000001805D0B0E8159000E8259F3
:10084000000E8359120080C006F081C007F082C0FC
:1008500008F083C009F0120084C006F085C007F0DC
:1008600086C008F087C009F012007D55000E7E5545
:10087000000E7F5512008155000E8255000E8355E3
:1008800012008555000E8655000E8755120067C070
:1008900010F068C011F0126A136A120069C010F0FB
:1008A0006AC011F0126A136A12006BC010F06CC0BB
:1008B00011F0126A136A1200D8907F337E337D33B1
:1008C0007C33E8061200D89083338233813380333F
:1008D000E8061200D8908733863385338433E806E0
:1008E0001200540E105E0C0E115A1200F36E060E1A
:1008F000F3CFDBFF070EDB6A12009D9AAB989E9A3E
:1009000000017485749112000001D05166D9AECFF8
:10091000EFFFAB50040B19E1AB50020B16E1D051C5
:1009200005E1E00E0001955D0AE01200D00507E147
:10093000E00E0001965D03E00001D06B12000001A3
:10094000D02B1F0ED05D01E1D8DF12009D98AC9A2C
:10095000AB889E9A9D8A00017481F90E741712006B
:100960000001D007D05104E1ACA2FED7A6EF04F0FD
:100970001F0ED880D05531D9EF50AD6E1200000156
:100980007483FA0E741795C0ADFFAC8A9D8812006F
:1009900049D90001B36BDF6A1E0EDF5C06E2DF504F
:1009A0001CD9EF50B327DF2AF7D7B329E86CB36F10
:1009B000E55228D14DD9030EE126FFEC08F0D950BD
:1009C000010F3ED957D9986B040EDF6E1E0EDF5C07
:1009D00008E21FD9DF5001D928D901E3DB2ADF2A39
:1009E000F5D741D902E2E16AE552E16E0BD130D987
:1009F000040EE126010EDB6ADF6A1E0EDF5C0CE2EC
:100A0000DF50EBD8010EDBCFE7FFEF50E726010EFA
:100A1000E7CFDBFFDF2AF1D7010EDB28E86CE76EBA
:100A2000010EE7CFDBFFDB500001B35D04E0210ED8
:100A3000976F4E0E20D0D950020F02D9040EDF6EF0
:100A40001E0EDF5C14E2DF50C8D8EF50E66E020ED7
:100A5000DBCFE9FF030EDBCFEAFFE552E750EF6E95
:100A6000020EDB2A030E01E3DB2ADF2AE9D7C2EC00
:100A700008F000D9410E986FC9D8040EE15C02E27B
:100A8000E16AE552E16EBED0CDD8020E826EDF6A19
:100A9000080EDF5C06E20001759375A3FED7DF2A1E
:100AA000F7D7010E826EDF6A080EDF5C06E20001F6
:100AB000759375A3FED7DF2AF7D792C082FFBCD803
:100AC000D6D0B0D8B9D8D950FD0FE96EFF0EDA20D4
:100AD000EA6EEE8EED52FD0EDBCF9AF0C8D000012B
:100AE0007487300E0001985D0001946F00017495C9
:100AF0001200AED8020EE126BDD84E0E986F86D8F1
:100B0000020EE15C02E2E16AE552E16E7BD06BD855
:100B1000DF6A0E0EDF5C05E2A0D801E3DB2ADF2AE4
:100B2000F8D7A1D802E2E16AE552E16E6BD000018C
:100B300074897495120057D85DC0B6F05EC0B7F0E6
:100B400061C0B8F062C0B9F065C0BAF066C0BBF071
:100B50005BC0BCF05CC0BDF05FC0BEF060C0BFF069
:100B600063C0C0F064C0C1F0DF6A0E0EDF5C05E256
:100B700074D801E3DB2ADF2AF8D775D802E2E16AEC
:100B8000E552E16E3FD0000174A51FD000019751DE
:100B9000450A18E0110A14E0020A10E0040A0CE009
:100BA000110A08E0600A04E0630A0EE1DAEF04F0DB
:100BB000F7EF04F06FEF05F044EF05F0E6EF05F016
:100BC00097EF05F09BEF05F094DF12002BD834D897
:100BD000660E996FF50E9A6F4AD0EA6A950FE96E24
:100BE000000EEA22120034D8030EE126D950010F7C
:100BF000E96EDACFEAFFB40EEE6E000EED6E3AD873
:100C0000986B1200E552E7CFD9FF1200C1DEBFEFAB
:100C100004F0010EDBCFE9FF020EDBCFEAFFEF505D
:100C2000E66E120015D8E6521200E552E750EF6E5C
:100C3000010EDB2A020E12001DD8410E986F120021
:100C4000E96EDACFEAFF410EEE6E000EED6E120095
:100C5000D9CFE6FFE1CFD9FF1200DBDF040EDF249E
:100C6000BCDF15EF06F0D2DF030EE15C1200CEDF31
:100C7000E552C8D70001210E976F1200D59EAF0E26
:100C8000D66E3C0ED76ED58E010E00017511756FB4
:100C90000001762B0A0E765D26E3020E0001751127
:100CA000756F0001766B0001772B780E775D1BE383
:100CB000776B0001782B00014B510001785D000E2D
:100CC00000014C5506E3800E00017511756F00019F
:100CD000786BFF0E0001795D01E0792BFF0E0001BA
:100CE0007A5D01E07A2BF294120000018E510BE044
:100CF000000E00019215926F8EC090F0830E0001DD
:100D00007515756F0ED00001010E906F020E000177
:100D1000921503E1010E921504E0040E00019011FA
:100D2000906F000191510001925D04E092C082FF3A
:100D300092C091F000018E510AE100019051000132
:100D40008F5D27E090C081FF90C08FF012000001FE
:100D5000CC510FE1020E000175150BE090C081FF30
:100D60000001010ECC6FFD0E00017515756F90C06E
:100D70008FF00001CC050DE1020E0001751509E0B0
:100D8000816A0001CC6BFD0E00017515756F0001C5
:100D90008F6B1200000191A30DD000018A51000158
:100DA000495D00018B5100014A5912E20001926B2A
:100DB00094EF07F00001475100018A5D000148519E
:100DC00000018B5905E2020E000192110109926F98
:100DD0001200FE0E00017515756FCDC0E6FF28EC00
:100DE00000F0E552000174A707D00001CD5102E1E7
:100DF0000001936B0001932B0001CD2B300ECD5DD4
:100E000001E088D0CD6B300E0001935D03E158EC1A
:100E100000F080D0FBEC01F000018E5101E07AD0AF
:100E20000001CE5103E1010ECE6F03D0000175AF7A
:100E300012000001759F000145510001885D00010D
:100E400046510001895914E3FF0E00017A5D0EE05E
:100E500063D860E369D800017B0506E1020E00015A
:100E600092110109926F02D00001926B93DF52D070
:100E700088510001435D000189510001445911E38B
:100E8000000191A306D0010E0001921700017B6BB7
:100E900030D0FF0E00017A5D3DE03ED83BE344D800
:100EA00037D0FF0E0001795D07E174DF000192A3E6
:100EB00031D00001796B2ED0FF0E795D2BE0780EDA
:100EC000795D04E267DF00017A6924D0780E795DEC
:100ED00021E3FF0E00017A5D0FE1000191A304D030
:100EE0000001010E7B6F02D000017B6B010E00013F
:100EF000921700017A6B0ED00FD80CE315D80001C1
:100F00007B0506E1020E000192110209926F02D0E8
:100F10000001926B75EF06F00001415100017A5D0E
:100F2000000E0001425512000001796900017A6942
:100F30001200D8CFE4FFE0CFE4FFE46EDACFE4FFA5
:100F4000E2CFDAFFE9CFE4FFEACFE4FFF6CFE4FF38
:100F5000F7CFE4FFF5CFE4FFF3CFE4FFF4CFE4FFF6
:100F6000FACFE4FF00EE00F0100EE80403E3EECF4A
:100F7000E4FFFBD700EE10F0080EE80403E3EECF29
:100F8000E4FFFBD7E652F2A403D03EEC06F013D008
:100F90009E50200B07E0010E0001741503E084EC65
:100FA00004F009D09E50100B06E0020E00017415EB
:100FB00002E0B0EC04F0E55200EE17F0080EE80491
:100FC00003E3E5CFEDFFFBD700EE0FF0100EE804D2
:100FD00003E3E5CFEDFFFBD7E5CFFAFFE5CFF4FF65
:100FE000E5CFF3FFE5CFF5FFE5CFF7FFE5CFF6FF60
:100FF000E5CFEAFFE5CFE9FFE5CFDAFFE550E5CF42
:10100000E0FFE5CFD8FF1000D9CFE6FFE1CFD9FF51
:10101000030EE126020EDB6A0400F26A9D6A9E6AF4
:101020006A0ED36ED3A4FED792680B0EC16E910EDA
:10103000C06EC26AF30E946EAC9CAC9AAC98AC9441
:10104000AB8EAB9CAB98B896B892B890330EAF6E9F
:10105000FA0E936E010E816E0001010E906F90C02A
:101060008FF0FC0E946E826A0001926B92C091F038
:101070000001756B0001746B0001766B0001776BEA
:101080000001786B00017C6B7D6B7E6B7F6B0001D8
:10109000806B816B826B836B0001846B856B866BCD
:1010A000876B0001936B00018E6B0001946B000154
:1010B000796900017A6900017B6BFFEC08F0000997
:1010C00004E04EEC09F0C2EC08F0010EC210C26E52
:1010D000D59E080ED56EAF0ED66E3C0ED76ED58E51
:1010E000F28AAB889E9A9D8A00017481F28CF28EFE
:1010F000DF6A080EDF5C16E2020EDB5008E1040E28
:10110000816E010EF36E020EF3CFDBFF04D0010EF1
:10111000816E020EDB6A000175A3FDD70001759395
:10112000DF2AE7D70400000175A103D0E9EC06F03F
:1011300002D0C3EC05F0F6D7030EE15C02E2E16AEF
:10114000E552E16EE552E7CFD9FF1200D7D8FE0E87
:10115000DB50A86EA69EA69CA684F29E550EA76E96
:10116000AA0EA76EA682A6B2FED7F28EA694CBD008
:10117000C5D8E652A69EA69CA680A850DF6EDF507A
:10118000E552C1D0BBD8040EE126C1D8030EDB6AFC
:10119000320EF36E030EDBCFF4FFF350F45C18E273
:1011A000030EDB50A96EA5D8EF50E66ECFDFE552F7
:1011B000A0D8020EDBCFE7FFEF50E726020EE7CF05
:1011C000DBFFDF2A010E01E3DB2A030EDB2AE0D777
:1011D000020EDB28E86C010FE76E020EE7CFDBFFA3
:1011E000030EDB50A96E020EDBCFE6FFAFDFE55248
:1011F000040EE15C02E2E16AE552E16E84D07ED841
:10120000050EE126010EF36E040EF3CFDBFF030E95
:10121000DB6A7DD8330EF36E020EDBCFF4FFF350A2
:10122000F45C31E2020EDB50A96EA2DFE66E61D8FB
:10123000E552E750EF6E020EDB50320810E0030E6D
:10124000DBCFE6FF56D8EF50E552E724E76E030EFA
:10125000E7CFDBFFDF2A010E13E3DB2A11D0030EF9
:10126000DB28E86C010FE76E030EE7CFDBFF41D808
:10127000EF50F36E030EDB50F35C05E1040EDB6A06
:10128000020EDB2AC7D7040EDB50106E050EE15CA0
:1012900002E2E16AE552E16E105035D0330EE66E9F
:1012A000E66AE66A410EE66E000EE66E6DEC0AF046
:1012B000050EE15E0001CC0E5B6F0C0E5C6F7C0EC8
:1012C0005D6F110E5E6FCC0E5F6F0C0E606F7C0E4B
:1012D000616F110E626F676B686B696B6A6B6B6B2A
:1012E0006C6B6D6B040E6E6F6F6B706F716B726FEA
:1012F0001200DECFE9FFDDCFEAFF1200D9CFE6FF13
:10130000E1CFD9FF1200E552E7CFD9FF1200410E1D
:10131000DE6E000EDD6E020EDB6A12002A0EF66E25
:10132000000EF76E000EF86E00010900F550C76F51
:101330000900F550C86F03E1C76701D03DD009002F
:10134000F550C26F0900F550C36F0900F550C46F26
:1013500009000900F550E96E0900F550EA6E090030
:1013600009000900F550C56F0900F550C66F090066
:101370000900F6CFC9F0F7CFCAF0F8CFCBF0C2C062
:10138000F6FFC3C0F7FFC4C0F8FF0001C55302E178
:10139000C65307E00900F550EE6EC507F8E2C60730
:1013A000F9D7C9C0F6FFCAC0F7FFCBC0F8FF0001EC
:1013B000C707000EC85BBFD7120006500B02F3CF61
:1013C00002F0F4CF03F00C02F3500326000EF420D9
:1013D000046E06500D02F3500426000EF420056E34
:1013E00006500E02F350052607500B02F350032659
:1013F000F4500422000E052207500C02F35004267C
:10140000F450052207500D02F350052608500B0238
:10141000F3500426F450052208500C02F350052620
:1014200009500B02F35005261200006AE86A0EAE5E
:1014300022EF0AF00B6C0C1E0D1E0E1E0C220D224C
:101440000E22001E09AE2DEF0AF0066C071E081EC4
:10145000091E072208220922001E49EC0AF009BED3
:1014600044EF0AF000AE000C066C071E081E091EB1
:10147000E86A072208220922026C031E041E051EC8
:10148000032204220522000C00BE34EF0AF001887A
:10149000FF0C056A046A036A026A200EE76ED890A0
:1014A0000636073608360936023603360436053660
:1014B0000B50025C0C5003580D5004580E50055848
:1014C00009E30B50025E0C50035A0D50045A0E50A3
:1014D000055A062AE72EE4D71200FE0EE3CFE9FFF5
:1014E000FF0EE3CFEAFFE9CFF3FFEACFF4FFFB0EF5
:1014F000E35003E1FC0EE35009E0FB0EE30602E2D9
:10150000FC0EE306FD0EE350EE6EF1D7120011EE75
:1015100000F021EE00F0F86A019C8EEC09F09CECE2
:101520000AF004EC08F0FBD7120000EE00F00F0EFA
:10153000EE6AEA62FDD7120012000000000000FF10
:10154000FFFFFFFFFFFFFFFFFFFFFFFFFFFFFFFFAB
:10155000FFFFFFFFFFFFFFFFFFFFFFFFFFFFFFFF9B
:10156000FFFFFFFFFFFFFFFFFFFFFFFFFFFFFFFF8B
:10157000FFFFFFFFFFFFFFFFFFFFFFFFFFFFFFFF7B
:0200000400F00A
:100000001E003C00A900F5023103010000000000C1
:1000100000000000000000000000A00C8011A00CF7
:100020007011A009400CC02A6D205C3BD803E50389
:10003000C903D5FFFFFFFFFFFFFFFFFFFFFFFFFF2C
:10004000FFFFFFFFFFFFFFFFFFFFFFFFFFFFFFFFC0
:10005000FFFFFFFFFFFFFFFFFFFFFFFFFFFFFFFFB0
:10006000FFFFFFFFFFFFFFFFFFFFFFFFFFFFFFFFA0
:10007000FFFFFFFFFFFFFFFFFFFFFFFFFFFFFFFF90
:10008000FFFFFFFFFFFFFFFFFFFFFFFFFFFFFFFF80
:10009000FFFFFFFFFFFFFFFFFFFFFFFFFFFFFFFF70
:1000A000FFFFFFFFFFFFFFFFFFFFFFFFFFFFFFFF60
:1000B000FFFFFFFFFFFFFFFFFFFFFFFFFFFFFFFF50
:1000C000FFFFFFFFFFFFFFFFFFFFFFFFFFFFFFFF40
:1000D000FFFFFFFFFFFFFFFFFFFFFFFFFFFFFFFF30
:1000E000FFFFFFFFFFFFFFFFFFFFFFFFFFFFFFFF20
:1000F000FFFFFFFFFFFFFFFFFFFFFFFFFFFFFFFF10
:020000040030CA
:0E00000000081E1F0083850003C003E00340BC
:020000040020DA
:08000000FFFFFFFFFFFFFFFF00
:00000001FF
