:040000000CEF00F011
:10000800FACF2BF0FBCF2CF0E9CF2DF0E2ED00F08A
:100018007EEF02F0000E406E000E3F6E000E426E44
:10002800000E416E000E446E000E436E000E466ECA
:10003800000E456E4DEC02F07EEC01F0818481806B
:1000480001D000D01B50D8B401D001D0FBD701D0CB
:1000580000D01C04D8A401D001D011D081A001D0B7
:1000680002D0010E01D0000E3E6E81503E18FE0BEC
:100078003E18816E3E6E000E1C6E3E5000D080A26F
:1000880001D001D008D080A401D001D004D080B61E
:1000980001D001D002D0818402D0819400D0000E1A
:1000A80080B2010E396E000E3B6E1F0E3A6E000EC6
:1000B8003D6E1E0E3C6EE7EC01F0000E80B4010EA2
:1000C800396E000E3B6E210E3A6E000E3D6E200E0C
:1000D8003C6EE7EC01F01F6601D001D004D00BC0E4
:1000E80003F00CC004F0216601D001D005D00DC08A
:1000F80005F00EC006F000D0000E80B6010E396E75
:10010800000E3B6E230E3A6E000E3D6E220E3C6EC4
:10011800E7EC01F03A503910D8B401D001D020D022
:1001280080B601D001D00BD008500710D8A401D058
:1001380001D005D00FC007F010C008F011D080B66C
:1001480001D001D00DD008500710D8B401D001D08B
:1001580007D0000E086E000E076E02D001D000D046
:1001680004500310D8A401D001D002D0829406D044
:1001780082840FC007F010C008F000D006500510A8
:10018800D8A401D001D002D0829606D082860FC0B2
:1001980007F010C008F000D008500710D8A401D00C
:1001A80001D006D08290000E466E000E456E51D7E3
:1001B80082804FD74ED74DD70CEF00F00600EACF1C
:1001C8002EF0E1CF2FF0E2CF30F0D9CF31F0DACFF7
:1001D80032F0F3CF33F0F4CF34F0F6CF35F0F7CF79
:1001E80036F0F8CF37F0F5CF38F09EA201D001D025
:1001F80064D0154A162A15C024F016C025F0000E42
:10020800276E0A0E266E1FEC02F025502410D8A483
:1002180001D001D005D02A6E010E1D6E2A5000D0E3
:100228001604F40ED8B41518D8A401D001D005D0FE
:100238002A6E010E1C6E2A5000D01650030AE80ED2
:10024800D8B41518D8A401D001D035D0000E166E38
:10025800000E156E1B2A2A6E010E1C6E2A502A6E7D
:10026800000E1A6E2A50030E1A6401D001D002D073
:1002780022D021D01A50020D010EF324D96E000E9F
:10028800F420DA6EDE50DD10D8B401D001D00CD0E5
:100298001A50020D010EF324D96E000EF420DA6E06
:1002A800DE06000EDD5A00D01A2A030E1A6401D0A9
:1002B80001D0E0D700D09E9200D038C0F5FF37C0FB
:1002C800F8FF36C0F7FF35C0F6FF34C0F4FF33C07F
:1002D800F3FF32C0DAFF31C0D9FF30C0E2FF2FC0D0
:1002E800E1FF2EC0EAFF2DC0E9FF2CC0FBFF2BC0A9
:1002F800FAFF1100000E3C6E000E3B6E000E3C6EC5
:10030800000E3B6E3C50800A800F040ED8B43B5C54
:10031800D8A001D001D002D01DD01CD0D8903B3439
:10032800396E3C343A6E010E3924D96E000E3A20EB
:10033800DA6E000EDE6E000EDD6E3B4A3C2A3C5043
:10034800800A800F040ED8B43B5CD8A001D001D03D
:10035800E5D700D0396E000E1A6E3950396E010E8D
:100368001F6E3950396E010E176E3950396E000EF6
:100378001E6E3950396E010E216E3950396E010EDC
:10038800186E3950396E000E206E3950396E010ED4
:10039800236E3950396E010E196E3950396E000EC0
:1003A800226E3950010E0A6E2C0E096E000E0C6E6C
:1003B800010E0B6E000E0E6E010E0D6E010E106E0C
:1003C8002C0E0F6E12003AC0D9FF3BC0DAFFDF5087
:1003D8003918D8B401D001D021D03CC0D9FF3DC0D4
:1003E800DAFFDF2A3CC0D9FF3DC0DAFF630EDF64C5
:1003F80001D001D01AD03CC0D9FF3DC0DAFF000EB1
:10040800DF6E3AC0D9FF3BC0DAFF39C0DFFF000E0C
:100418003A6E010E396E0ED00DD007D03CC0D9FF10
:100428003DC0DAFF000EDF6E00D0000E3A6E000EFF
:10043800396E00D0120027502610D8B401D001D050
:1004480023D0286E010E296E285005D0D890263664
:100458002736292A00D027AE01D001D0F7D701D0FE
:1004680000D02650245C27502558D8A001D001D0B0
:1004780005D02650245E2750255A00D0D890273220
:100488002632292EEED700D024C024F025C025F02E
:1004980012000F0E926E000E936E000E946E000EF8
:1004A800806E000E816E000E826E0F0EC16EC00E41
:1004B800F26E070EB46E020E9D6E000E9F6ED3880C
:1004C800D38AD38C3A6E8D0E396E3A506FEC02F0A7
:1004D800FA0ECB6E12003950FB0BCA6E000ECC6EB2
:1004E8009E9239AE01D001D002D09D8201D09D925A
:1004F800CA84120000EE01F0230EEE6AE806FDE160
:0605080000010EEF00F0FF
:020000040020DA
:08000000FFFFFFFFFFFFFFFF00
:020000040030CA
:0E000000FF081F1EFF8081FF0FC00FE00F40A2
:00000001FF
